:100000000C9434000C9451000C9451000C94510049
:100010000C9451000C9451000C9451000C9451001C
:100020000C9451000C9451000C9451000C94C1009C
:100030000C9451000C9451000C9451000C945100FC
:100040000C9451000C9451000C9451000C945100EC
:100050000C9451000C9451000C9451000C945100DC
:100060000C9451000C94510011241FBECFEFD8E026
:10007000DEBFCDBF12E0A0E0B1E0E8E2FCE002C0EC
:1000800005900D92AA30B107D9F722E0AAE0B2E0BC
:1000900001C01D92A336B207E1F70E9475020C94CD
:1000A00012060C9400000F931F93CF93DF93DC0193
:1000B000EEE0F2E020E030E0822FE90100811181E2
:1000C0002F5F3F4F3796012BB9F797E09C9FF001C8
:1000D0009D9FF00D1124E25FFD4FB183A0837383D8
:1000E0006283558344831682DF91CF911F910F91D4
:1000F000089527E0829FC0011124FC01E25FFD4FBB
:10010000118210821382128215821482168280E07C
:1001100008951F93CF93DF93CEE0D2E010E08E815D
:10012000882379F0E881F981309759F009958E811B
:1001300081508E838C819D81892B19F4812F0E949F
:1001400079001F5F2796153051F7DF91CF911F91EE
:100150000895CF93C0E08C2F0E947900CF5FC53007
:10016000D1F78FE79EE3909389008093880089E020
:100170008093810082E080936F00CF9108957894FE
:1001800008951F920F920FB60F9211248F939F9391
:10019000EF93FF93EEE0F2E080819181892B71F083
:1001A00082819381009739F486818F5F8683848171
:1001B0009581009719F0019793838283379682E0A7
:1001C000E133F80749F7FF91EF919F918F910F90DD
:1001D0000FBE0F901F9018951092C50087E6809370
:1001E000C4001092C00088E18093C10086E0809333
:1001F000C200089530910001A1E3B2E080E090E0F8
:10020000831780F42091C00027FFFCCFFC012091D0
:10021000C6002D9301962D3099F7EF5CFD4F1082AB
:1002200080E0089581E0089560E0262F30E0FC0131
:1002300001900020E9F7AF01481B590B241735073F
:10024000C8F44091C00045FFFCCFFC01E20FF31F52
:10025000208121110BC08DE08093C6008091C000E9
:1002600085FFFCCF8AE08093C60008952093C600E6
:100270006F5FDBCF08958091C00080780895EF9282
:10028000FF920F931F93CF93DF9300D000D000D045
:10029000CDB7DEB780E090E00E94B20589369A477C
:1002A00049F069E67AE780E090E00E94B80500E056
:1002B00010E007C082E090E00E94B2058C010F5F61
:1002C0001F4F1F930F9381E091E09F938F931F9295
:1002D00086E08F93CE0101967C019F938F930E94BD
:1002E000CF02B70184E091E00E94A5020E941401B0
:1002F000B80182E090E00E94B8050FB6F894DEBF26
:100300000FBECDBF26960FB6F894DEBF0FBECDBF91
:10031000DF91CF911F910F91FF90EF9008958EE2A2
:1003200091E00C941401CF93DF9300D000D0CDB7AF
:10033000DEB790910001E1E3F2E080E0891711F16E
:1003400021912D33E9F4DE01119690E0AD01282FC3
:1003500030E02F5C3D4FF9012081222361F0943081
:1003600051F08F5F282F30E02F5C3D4FF901208145
:100370002D939F5FECCFFA01E90FF11D108202C0AF
:100380008F5FDCCFCE0101960E9487020F900F9005
:100390000F900F90DF91CF9108950F931F93CF93FC
:1003A000DF9300D000D0CDB7DEB768E471E081E321
:1003B00092E00E94B002892B19F489E591E07BC09C
:1003C00066E671E081E392E00E94B002892B51F46D
:1003D00080910C02811103C080E791E06CC085E739
:1003E00091E069C069E771E081E392E00E94B002A8
:1003F000892B19F480910A020AC063E971E081E354
:1004000092E00E94B002892BE9F480910B02282F20
:10041000082E000C330B3F938F9380E991E09F935C
:100420008F938E010F5F1F4F1F930F930E94FF0248
:10043000C8010E9414010F900F900F900F900F9021
:100440000F903BC06AEA71E081E392E00E94B00243
:10045000892B19F410920C0229C06EEB71E081E334
:1004600092E00E94B002892B21F481E080930C027B
:100470001DC047E150E06AEC71E081E392E00E9428
:10048000B902892B29F40E94930180930A020EC0BD
:1004900047E150E062EE71E081E392E00E94B90230
:1004A000892B39F40E94930180930B0286EB91E033
:1004B00002C08AEF91E00E9414010F900F900F90FC
:1004C0000F90DF91CF911F910F9108958091C000FF
:1004D00087FF0AC00E94FA00811102C00C94CD016E
:1004E00084E092E00C94140108950E94EC000E94B4
:1004F000A9000E943F0141E050E068EE73E086E60B
:1005000092E00E94530078940E948900FDCFFC0184
:1005100088279927E89421912032E9F3293010F0B7
:100520002E30C8F32B3241F02D3239F4689404C0D8
:100530000E94C702820F911D219120532A30C0F3DF
:100540001EF4909581959F4F0895FB01DC010D905D
:100550000020E9F7119701900D920020E1F708952E
:10056000FB01DC018D91019080190110D9F3990BE9
:100570000895FB01DC014150504030F08D91019015
:10058000801919F40020B9F7881B990B08957AE0B7
:10059000979F902D879F802D910D11240895AEE097
:1005A000B0E0E5EDF2E00C94E9050D891E898F8934
:1005B000988D26E02C831A83098397FF02C080E080
:1005C00090E801979E838D83AE01455E5F4F698DF4
:1005D0007A8DCE0101960E9421034D815E8157FDE7
:1005E0000AC02F813885421753070CF49A01F8018D
:1005F000E20FF31F10822E96E4E00C940506AEE0A5
:10060000B0E0E5E0F3E00C94E9050D891E8986E091
:100610008C831A8309838FEF9FE79E838D83AE01BE
:10062000475E5F4F6F89788DCE0101960E9421034E
:10063000EF81F885E00FF11F10822E96E4E00C9414
:100640000506ABE0B0E0E7E2F3E00C94DB056C01FB
:100650007B018A01FC0117821682838181FFCCC154
:10066000CE0101963C01F6019381F70193FD85913E
:1006700093FF81917F01882309F4BAC1853239F44F
:1006800093FD859193FF81917F01853229F4B60115
:1006900090E00E941805E7CF912C212C312CFFE12E
:1006A000F315D8F08B3279F038F4803279F0833258
:1006B000A1F4232D20611DC08D3261F0803369F4D7
:1006C000232D216016C0832D8260382EE32DE46037
:1006D0003E2E2AC0F32DF8601DC037FC2DC020ED42
:1006E000280F2A3040F08E32B9F436FC81C1232D18
:1006F0002064322E19C036FE06C08AE0989E200D76
:100700001124922E11C0EAE02E9E200D1124222EDB
:10071000F32DF0623F2E08C08C3621F4832D8068C3
:10072000382E02C0883641F4F70193FD859193FF7E
:1007300081917F018111B3CF982F9F7D9554933084
:1007400028F40C5F1F4F9FE399830DC0833631F06F
:10075000833771F0833509F059C021C0F8018081D9
:1007600089830E5F1F4F88248394912C530113C0FB
:100770002801F2E04F0E511CF801A080B18036FE36
:1007800003C0692D70E002C06FEF7FEFC5010E94CA
:100790000D054C018201F32DFF773F2E16C0280175
:1007A00022E0420E511CF801A080B18036FE03C049
:1007B000692D70E002C06FEF7FEFC5010E94020556
:1007C0004C01F32DF0683F2E820133FC1BC0822DBB
:1007D00090E088169906B0F4B60180E290E00E949D
:1007E00018052A94F4CFF50137FC859137FE8191E5
:1007F0005F01B60190E00E94180521102A9421E0C3
:10080000821A91088114910471F7E8C0843611F0BE
:10081000893641F5F80137FE07C060817181828118
:1008200093810C5F1F4F08C060817181072E000CFF
:10083000880B990B0E5F1F4FF32DFF763F2E97FF0E
:1008400009C090958095709561957F4F8F4F9F4F10
:10085000F0683F2E2AE030E0A3010E945405882E64
:10086000861845C0853731F4232D2F7EB22E2AE01D
:1008700030E025C0932D997FB92E8F36C1F018F442
:10088000883579F0B5C0803719F0883721F0B0C0CD
:10089000E92FE061BE2EB4FE0DC0FB2DF460BF2E2B
:1008A00009C034FE0AC0292F2660B22E06C028E0F7
:1008B00030E005C020E130E002C020E132E0F80184
:1008C000B7FE07C060817181828193810C5F1F4FE9
:1008D00006C06081718180E090E00E5F1F4FA30130
:1008E0000E945405882E8618FB2DFF773F2E36FE7A
:1008F0000DC0232D2E7FA22E891458F434FE0BC078
:1009000032FC09C0832D8E7EA82E05C0B82CA32CE6
:1009100003C0B82C01C0B92CA4FE0FC0FE01E80D25
:10092000F11D8081803321F49A2D997EA92E09C072
:10093000A2FE06C0B394B39404C08A2D867809F051
:10094000B394A3FC11C0A0FE06C0B21488F4280C16
:10095000922C9B180EC0B21460F4B60180E290E0B5
:100960000E941805B394F7CFB21418F42B1802C0E4
:10097000982C212CA4FE10C0B60180E390E00E94C8
:100980001805A2FE17C0A1FC03C088E790E002C0D2
:1009900088E590E0B6010CC08A2D867859F0A1FE5A
:1009A00002C08BE201C080E2A7FC8DE2B60190E0BC
:1009B0000E941805891438F4B60180E390E00E9483
:1009C00018059A94F7CF8A94F301E80DF11D808100
:1009D000B60190E00E9418058110F5CF222009F49D
:1009E00042CEB60180E290E00E9418052A94F6CF2C
:1009F000F6018681978102C08FEF9FEF2B96E2E18F
:100A00000C94F705FC010590615070400110D8F777
:100A1000809590958E0F9F1F0895FC016150704046
:100A200001900110D8F7809590958E0F9F1F089523
:100A30000F931F93CF93DF93FB01238121FD03C00D
:100A40008FEF9FEF2CC022FF16C046815781248173
:100A500035814217530744F4A081B1819D012F5F76
:100A60003F4F318320838C93268137812F5F3F4F07
:100A70003783268314C08B01EC01FB010084F185D0
:100A8000E02D0995892BE1F6D80116968D919C9160
:100A90001797019617969C938E931697CE01DF9128
:100AA000CF911F910F910895FA01AA27283051F193
:100AB000203181F1E8946F936E7F6E5F7F4F8F4F8F
:100AC0009F4FAF4FB1E03ED0B4E03CD0670F781FEE
:100AD000891F9A1FA11D680F791F8A1F911DA11DD3
:100AE0006A0F711D811D911DA11D20D009F468940C
:100AF0003F912AE0269F11243019305D3193DEF6B4
:100B0000CF010895462F4770405D4193B3E00FD069
:100B1000C9F7F6CF462F4F70405D4A3318F0495D54
:100B200031FD4052419302D0A9F7EACFB4E0A69537
:100B30009795879577956795BA95C9F70097610559
:100B4000710508959B01AC010A2E069457954795AF
:100B500037952795BA95C9F7620F731F841F951FA4
:100B6000A01D0895A8E1B0E042E050E00C94BF055C
:100B70000E94CD05272F0C94CE05DC01CB01FC0192
:100B8000F999FECF06C0F2BDE1BDF89A319600B4E6
:100B90000D9241505040B8F70895262FF999FECF95
:100BA0001FBA92BD81BD20BD0FB6F894FA9AF99A8A
:100BB0000FBE019608952F923F924F925F926F92CF
:100BC0007F928F929F92AF92BF92CF92DF92EF92DD
:100BD000FF920F931F93CF93DF93CDB7DEB7CA1B5E
:100BE000DB0B0FB6F894DEBF0FBECDBF09942A8889
:100BF000398848885F846E847D848C849B84AA8431
:100C0000B984C884DF80EE80FD800C811B81AA81BD
:100C1000B981CE0FD11D0FB6F894DEBF0FBECDBF88
:080C2000ED010895F894FFCFE7
:100C28003225750054656D70657261747575726DE5
:100C380065657473656E736F722076302E310D0A98
:100C4800426F6F74206E756D6D65723A2000546541
:100C5800737462657269636874207569742073635C
:100C6800686564756C65720021636F6E6E65637488
:100C780069652D636865636B004074656D706572A6
:100C8800617475757200216175746F6E6F6F6D0098
:100C9800406E656500406A610021626F76656E6727
:100CA80072656E7374656D706572617475757200C6
:100CB800256400216F6E6465726772656E73746572
:100CC8006D706572617475757200216175746F6EEF
:100CD8006F6F6D3D3000407375636365730021610C
:100CE80075746F6E6F6F6D3D310021626F76656E42
:100CF8006772656E7374656D70657261747575720F
:100D08003D00216F6E6465726772656E7374656D00
:100D180070657261747575723D00406F6E67656CC1
:0A0D28006469670040666F7574008F
:00000001FF
