:100000000C9434000C94EE000C9451000C945100AC
:100010000C9451000C9451000C9451000C9451001C
:100020000C9451000C9451000C9451000C94C3009A
:100030000C9451000C942F010C9451000C9451001D
:100040000C9451000C9451000C9451000C945100EC
:100050000C9451000C9451000C9451000C945100DC
:100060000C9451000C94510011241FBECFEFD8E026
:10007000DEBFCDBF13E0A0E0B1E0E4EBF6E102C0EB
:1000800005900D92AC3DB107D9F724E0ACEDB3E09B
:1000900001C01D92AA36B207E1F70E941C060C941B
:1000A000580B0C9400000F931F93CF93DF93DC0148
:1000B000EEEEF3E020E030E0822FE90100811181D3
:1000C0002F5F3F4F3796012BB9F797E09C9FF001C8
:1000D0009D9FF00D1124E251FC4FB183A0837383E7
:1000E0006283558344831682DF91CF911F910F91D4
:1000F000089527E0829FC0011124FC01E251FC4FCA
:10010000118210821382128215821482168280E07C
:1001100008951F93CF93DF93CEEED3E010E08E814E
:10012000882379F0E881F981309759F009958E811B
:1001300081508E838C819D81892B19F4812F0E949F
:1001400079001F5F27961A3051F7DF91CF911F91E9
:100150000895CF93C0E08C2F0E947900CF5FCA3002
:10016000D1F78FE79EE3909389008093880089E020
:100170008093810080916F00826080936F00CF91A7
:100180000895789408951F920F920FB60F9211243C
:100190008F939F93EF93FF93EEEEF3E08081918135
:1001A000892B71F082819381009739F486818F5F6A
:1001B000868384819581009719F0019793838283C8
:1001C000379684E0E433F80749F7FF91EF919F9168
:1001D0008F910F900FBE0F901F9018951F920F9246
:1001E0000FB60F9211242F933F938F939F9390916B
:1001F000ED039130A1F48091EB03811110C04A9B73
:100200000EC08091810082608093810010928500F1
:10021000109284009093EB031092ED0317C090911D
:10022000EB03913099F44A9911C0809181008D7F40
:100230008093810020918400309185003093EA03FF
:100240002093E9031092EB039093EC039F918F911D
:100250003F912F910F900FBE0F901F9018951F92F6
:100260000F920FB60F9211248F93EF93FF93E1E853
:10027000F0E080818D7F808381E08093EC03109299
:10028000EB03FF91EF918F910F900FBE0F901F9096
:1002900018951092C50087E68093C4001092C000A4
:1002A00088E18093C10086E08093C2000895309178
:1002B0000001A4E3B4E080E090E0831780F4209193
:1002C000C00027FFFCCFFC012091C6002D930196B2
:1002D0002D3099F7EC5CFB4F108280E0089581E0AF
:1002E000089560E0262F30E0FC0101900020E9F73E
:1002F000AF01481B590B24173507C8F44091C000C3
:1003000045FFFCCFFC01E20FF31F208121110BC040
:100310008DE08093C6008091C00085FFFCCF8AE00D
:100320008093C60008952093C6006F5FDBCF0895C9
:1003300020E0EAE0F0E0009731F02F5FBF010E947B
:100340006B06CB01F8CF211101C021E0822F089567
:10035000EF92FF921F93CF93DF93D82F192F0E9414
:100360009801C82F90E00E94B0069C01EAE0F0E0FE
:10037000C15068F07901EC0EF11C8D2F912FBF0157
:100380000E946B06D7018C93D62F172FF1CFC9018E
:10039000DF91CF911F91FF90EF9008958091C00061
:1003A00080780895EF92FF920F931F93CF93DF937E
:1003B000CDB7DEB7E2970FB6F894DEBF0FBECDBF64
:1003C00080E090E00E94F80A89369A4749F069E691
:1003D0007AE780E090E00E94FE0A00E010E007C0AB
:1003E00082E090E00E94F80A8C010F5F1F4F1F937C
:1003F0000F9385E191E09F938F938CE291E09F931F
:100400008F931F9282E38F93CE0101967C019F937D
:100410008F930E941508C7010E947101B80182E004
:1004200090E00E94FE0A0FB6F894DEBF0FBECDBF6B
:10043000E2960FB6F894DEBF0FBECDBFDF91CF912D
:100440001F910F91FF90EF900895CF93DF93CDB759
:10045000DEB72A970FB6F894DEBF0FBECDBF9091DE
:100460000001E4E3F4E080E0891711F121912D33DC
:10047000E9F4DE01119690E0AD01282F30E02C5C0C
:100480003B4FF9012081222361F0993051F08F5FB9
:10049000282F30E02C5C3B4FF90120812D939F5F8A
:1004A000ECCFFA01E90FF11D108202C08F5FDCCFA3
:1004B000CE0101960E94D1072A960FB6F894DEBFAE
:1004C0000FBECDBFDF91CF910895239AEFE6F0E004
:1004D000808181608083109285001092840081E089
:1004E000809369008DBB089581E08093ED032B9A82
:1004F00085E38A95F1F700002B988091EC0388231F
:10050000E1F38091E9039091EA036FE070E00E94CB
:100510006B06CB01089581E680937C0080917A0080
:10052000806480937A0080917A0086FDFCCF2091D0
:10053000790030E0A4E6B0E00E94A1062FEF30E0A1
:1005400040E050E00E947F06822F08950F931F9392
:10055000CF93DF93CDB7DEB7E2970FB6F894DEBF47
:100560000FBECDBF0E948B021F928F9381E391E05B
:100570009F938F938CE291E09F938F931F9282E3DE
:100580008F938E010F5F1F4F1F930F930E941508CB
:10059000C8010E9471010FB6F894DEBF0FBECDBF37
:1005A000E2960FB6F894DEBF0FBECDBFDF91CF91BC
:1005B0001F910F91089580E480937C0080917A00D0
:1005C000806480937A0080917A0086FDFCCF209130
:1005D000780030917900A8E8B3E10E94A106DC011F
:1005E000CB012AE0B695A795979587952A95D1F7DF
:1005F000845F914008950F931F93CF93DF93CDB7FE
:10060000DEB7E2970FB6F894DEBF0FBECDBF0E94F3
:10061000DB029F938F9389E391E09F938F9380E414
:1006200091E09F938F931F9282E38F938E010F5FD0
:100630001F4F1F930F930E941508C8010E9471015C
:100640000FB6F894DEBF0FBECDBFE2960FB6F8949A
:10065000DEBF0FBECDBFDF91CF911F910F910895E7
:100660008091E7038130B1F40E94DB022091E50321
:100670003091E603281739075CF42091E3033091A9
:10068000E4038217930724F484E68093DD0308953E
:100690001092DD0308950F931F93CF93DF93CDB78F
:1006A000DEB7E2970FB6F894DEBF0FBECDBF65E4AC
:1006B00071E084E394E00E94EF078E010F5F1F4F0B
:1006C000892B19F466E571E022C16EE671E084E3DE
:1006D00094E00E94EF07892B51F48091E703811188
:1006E00003C068E771E013C164E871E010C160E91C
:1006F00071E084E394E00E94EF07892B49F4809134
:10070000E4038F938091E3038F9387EA91E05BC0CA
:1007100061EC71E084E394E00E94EF07892B49F4D7
:100720008091E6038F938091E5038F9388ED91E0AC
:100730004AC062EF71E084E394E00E94EF07892BE6
:1007400039F48091DE031F928F9380E092E03BC0EA
:1007500061E172E084E394E00E94EF07892B39F4B1
:100760008091E0031F928F9383E292E02CC068E3B4
:1007700072E084E394E00E94EF07892B39F48091C2
:10078000DF031F928F938AE492E01DC06FE572E051
:1007900084E394E00E94EF07892B39F48091E10310
:1007A0001F928F938BE792E00EC06AE972E084E3B8
:1007B00094E00E94EF07892B99F48091E2031F9245
:1007C0008F9386EB92E09F938F931F930F930E94DA
:1007D00045080F900F900F900F900F900F909AC0B8
:1007E00065ED72E084E394E00E94EF07892B39F411
:1007F0000E9474029F938F938EED92E021C068EE69
:1008000072E084E394E00E94EF07892B59F40E9480
:100810008B021F928F938FEE92E09F938F938CE2C7
:1008200091E012C067EF72E084E394E00E94EF076A
:10083000892BC9F40E94DB029F938F9384E093E09D
:100840009F938F9380E491E09F938F931F9282E315
:100850008F931F930F930E9415080FB6F894DEBF75
:100860000FBECDBF57C062E173E084E394E00E9405
:10087000EF07892B19F41092E7030BC06FE273E0C6
:1008800084E394E00E94EF07892B31F481E08093A8
:10089000E7036EE173E03BC047E150E06BE373E0D8
:1008A00084E394E00E94FF07892B49F40E9425020B
:1008B0009093E4038093E30363E573E028C047E18A
:1008C00050E061E773E084E394E00E94FF07892B26
:1008D00049F40E9425029093E6038093E50369E8BA
:1008E00073E015C04EE050E067EA73E084E394E003
:1008F0000E94FF07892B49F40E942502853628F4BF
:100900008093DD0366EB73E002C06BEC73E0C8011B
:100910000E94F807C8010E947101E2960FB6F89490
:10092000DEBF0FBECDBFDF91CF911F910F91089514
:100930008091C00087FF0AC00E945701811102C048
:100940000C944B0385ED93E00C947101089545B12F
:1009500021E030E061110AC0B90102C0660F771FC3
:100960008A95E2F7CB018095842308C0B90102C0C3
:10097000660F771F8A95E2F7CB01842B85B908951E
:10098000CF93DF93D82FC8E029986D2F617080E056
:100990000E94A704D695299AC150B1F7DF91CF9153
:1009A00008952A980E94C0042A9A08957F928F92EF
:1009B0009F92AF92BF92CF92DF92EF92FF920F93EE
:1009C0001F93CF93DF93CDB7DEB763970FB6F8943D
:1009D000DEBF0FBECDBF8BE0E7E0F1E0DE01119698
:1009E00001900D928A95E1F718E07E014CE0E40E4B
:1009F000F11CD701E12F1D92EA95E9F78091DC0304
:100A0000811151C00E94DB0228E72C8724E52D8745
:100A100023E72E8797FF09C0CC24DD24C81AD90A02
:100A200080E48F8784E0982E06C06C010E949801B4
:100A300097E0992E981AC6010E94A8015C01892CA2
:100A4000782C7918C6010E949801082D10E07816BC
:100A5000C8F4272D30E0F501E20FF31F9081E1E0AB
:100A6000F0E0EC0FFD1FE90FF11D408190E0821BCB
:100A7000930BF701E00FF11F029709F440684083E0
:100A80008394DECFC5010E944807F701E00FF11FF4
:100A90008081886580838091DC038F5F8093DC0395
:100AA0008701F12C57C0813049F50E948B029AE3EF
:100AB0009C8799E39D8796E79E8798E79F87C82E36
:100AC000D12CC6010E949801181BC6010E94A801E2
:100AD000FC01183081F02191B701610F711D41E0D7
:100AE00050E04C0F5D1F420F511DDA012C91DB01CC
:100AF0002C931F5FEECF0E944807CDCF823081F646
:100B00000E9474026C0187E78C8781E78D878DE6F0
:100B10008E8788E78F87C6010E949801181BC6013F
:100B20000E94A801FC01183081F02191B701610FEA
:100B3000711D41E050E04C0F5D1F420F511DDA0165
:100B40002C91DB012C931F5FEECF0E94480710927F
:100B5000DC03A6CF84E40E94D1042A988F2D880F4D
:100B600080540E94C004F80181918F010E94C0044A
:100B70002A9AF394F8E0FF12EDCF63960FB6F8943B
:100B8000DEBF0FBECDBFDF91CF911F910F91FF90C0
:100B9000EF90DF90CF90BF90AF909F908F907F901D
:100BA000089584B1876084B989E80C94D104CF9307
:100BB00080E40E94D1042A9880EC0E94C004C0E125
:100BC00080E00E94C004C150D9F72A9ACF910895BD
:100BD0001F93CF93DF93182FD1E0C0E0C11301C062
:100BE000D0E084E40E94D1042A988C2F880F8F5380
:100BF0000E94C0048D2F0E94C0042A9ACF5FC83083
:100C000069F7DF91CF911F9108959091DD03809155
:100C1000DE03891720F4843610F48F5F05C098171F
:100C200050F4882341F081508093DE036CE00E94F1
:100C30005F060C94E80508950E9449010E94A900EE
:100C400087E880937A000E94D1050E94D7050E9410
:100C500065020E94D20141E050E068EE73E088E94D
:100C600094E00E94530040E45CE968EE73E08BEF8F
:100C700092E00E94530040E65AEE68EE73E086EA86
:100C800092E00E94530044E650E068EE73E085E095
:100C900096E00E94530040E157E268EE73E080E383
:100CA00093E00E94530040ED57E068EE73E086ED5C
:100CB00094E00E94530078940E948900FDCF991B14
:100CC00079E004C0991F961708F0961B881F7A9543
:100CD000C9F780950895AA1BBB1B51E107C0AA1F45
:100CE000BB1FA617B70710F0A61BB70B881F991FCD
:100CF0005A95A9F780959095BC01CD010895A1E280
:100D00001A2EAA1BBB1BFD010DC0AA1FBB1FEE1F85
:100D1000FF1FA217B307E407F50720F0A21BB30BD0
:100D2000E40BF50B661F771F881F991F1A9469F74C
:100D300060957095809590959B01AC01BD01CF01A8
:100D40000895A29FB001B39FC001A39F700D811DA4
:100D50001124911DB29F700D811D1124911D0895C4
:100D60000F931F93CF93DF938230910510F482E0AD
:100D700090E0E0916804F091690420E030E0A0E0A8
:100D8000B0E0309719F140815181028113814817F9
:100D90005907C8F08417950769F4109731F0129637
:100DA0000C93129713961C9327C00093680410931A
:100DB000690422C02115310519F04217530718F4B0
:100DC0009A01BD01EF01DF01F801DBCF21153105EB
:100DD000F9F0281B390B2430310580F48A819B817E
:100DE0006115710521F0FB019383828304C0909308
:100DF000690480936804FE01329644C0FE01E20F4C
:100E0000F31F8193919322503109398328833AC08B
:100E10002091660430916704232B41F42091030153
:100E200030910401309367042093660420910101FE
:100E3000309102012115310541F42DB73EB74091A3
:100E4000050150910601241B350BE0916604F091D9
:100E50006704E217F307A0F42E1B3F0B281739078E
:100E600078F0AC014E5F5F4F2417350748F04E0F06
:100E70005F1F50936704409366048193919302C06F
:100E8000E0E0F0E0CF01DF91CF911F910F91089545
:100E9000CF93DF93009709F481C0FC01329713824E
:100EA0001282A0916804B0916904109781F42081A6
:100EB0003181820F931F20916604309167042817B7
:100EC000390751F5F0936704E093660467C0ED01BC
:100ED00020E030E0CE17DF0740F44A815B819E01BD
:100EE00041155105F1F0EA01F5CFD383C28340816A
:100EF0005181840F951FC817D90759F488819981AA
:100F0000840F951F0296918380838A819B819383AE
:100F100082832115310529F4F0936904E093680474
:100F20003DC0E901FB83EA8349915991C40FD51F64
:100F3000EC17FD0761F480819181840F951F029663
:100F4000E90199838883828193819B838A83E0E08E
:100F5000F0E012968D919C911397009719F0FD0186
:100F6000DC01F7CF8D919C9111979D012E5F3F4F32
:100F7000820F931F20916604309167042817390768
:100F800069F4309729F4109269041092680402C041
:100F900013821282B0936704A0936604DF91CF910D
:100FA0000895FC0188279927E89421912032E9F3DC
:100FB000293010F02E30C8F32B3241F02D3239F4A5
:100FC000689404C00E940D08820F911D2191205346
:100FD0002A30C0F31EF4909581959F4F0895FB0130
:100FE000DC018D91019080190110D9F3990B0895BE
:100FF000FB01DC0101900D920020E1F70895FB0157
:10100000DC014150504030F08D910190801919F46D
:101010000020B9F7881B990B08957AE0979F902DCF
:10102000879F802D910D11240895AEE0B0E0EBE193
:10103000F8E00C942F0B0D891E898F89988D26E07E
:101040002C831A83098397FF02C080E090E8019700
:101050009E838D83AE01455E5F4F698D7A8DCE0193
:1010600001960E9467084D815E8157FD0AC02F815D
:101070003885421753070CF49A01F801E20FF31F69
:1010800010822E96E4E00C944B0BAEE0B0E0EBE463
:10109000F8E00C942F0B0D891E8986E08C831A834F
:1010A00009838FEF9FE79E838D83AE01475E5F4F7D
:1010B0006F89788DCE0101960E946708EF81F885CF
:1010C000E00FF11F10822E96E4E00C944B0BABE086
:1010D000B0E0EDE6F8E00C94210B6C017B018A0195
:1010E000FC0117821682838181FFCCC1CE0101965B
:1010F0003C01F6019381F70193FD859193FF819166
:101100007F01882309F4BAC1853239F493FD8591B2
:1011100093FF81917F01853229F4B60190E00E940E
:101120005E0AE7CF912C212C312CFFE1F315D8F08A
:101130008B3279F038F4803279F08332A1F4232DA8
:1011400020611DC08D3261F0803369F4232D216050
:1011500016C0832D8260382EE32DE4603E2E2AC017
:10116000F32DF8601DC037FC2DC020ED280F2A306C
:1011700040F08E32B9F436FC81C1232D2064322E2A
:1011800019C036FE06C08AE0989E200D1124922ECA
:1011900011C0EAE02E9E200D1124222EF32DF062C4
:1011A0003F2E08C08C3621F4832D8068382E02C073
:1011B000883641F4F70193FD859193FF81917F017A
:1011C0008111B3CF982F9F7D9554933028F40C5FF5
:1011D0001F4F9FE399830DC0833631F0833771F041
:1011E000833509F059C021C0F801808189830E5FE1
:1011F0001F4F88248394912C530113C02801F2E0DF
:101200004F0E511CF801A080B18036FE03C0692D3D
:1012100070E002C06FEF7FEFC5010E94530A4C01DE
:101220008201F32DFF773F2E16C0280122E0420EE7
:10123000511CF801A080B18036FE03C0692D70E01A
:1012400002C06FEF7FEFC5010E94480A4C01F32DE9
:10125000F0683F2E820133FC1BC0822D90E088167F
:101260009906B0F4B60180E290E00E945E0A2A94EA
:10127000F4CFF50137FC859137FE81915F01B6010E
:1012800090E00E945E0A21102A9421E0821A9108BF
:101290008114910471F7E8C0843611F0893641F564
:1012A000F80137FE07C060817181828193810C5FF4
:1012B0001F4F08C060817181072E000C880B990BAD
:1012C0000E5F1F4FF32DFF763F2E97FF09C09095BD
:1012D0008095709561957F4F8F4F9F4FF0683F2E9F
:1012E0002AE030E0A3010E949A0A882E861845C0A1
:1012F000853731F4232D2F7EB22E2AE030E025C031
:10130000932D997FB92E8F36C1F018F4883579F076
:10131000B5C0803719F0883721F0B0C0E92FE061FF
:10132000BE2EB4FE0DC0FB2DF460BF2E09C034FEEE
:101330000AC0292F2660B22E06C028E030E005C082
:1013400020E130E002C020E132E0F801B7FE07C042
:1013500060817181828193810C5F1F4F06C0608123
:10136000718180E090E00E5F1F4FA3010E949A0AF6
:10137000882E8618FB2DFF773F2E36FE0DC0232DBD
:101380002E7FA22E891458F434FE0BC032FC09C003
:10139000832D8E7EA82E05C0B82CA32C03C0B82C9C
:1013A00001C0B92CA4FE0FC0FE01E80DF11D808123
:1013B000803321F49A2D997EA92E09C0A2FE06C081
:1013C000B394B39404C08A2D867809F0B394A3FC37
:1013D00011C0A0FE06C0B21488F4280C922C9B18F1
:1013E0000EC0B21460F4B60180E290E00E945E0A82
:1013F000B394F7CFB21418F42B1802C0982C212CF8
:10140000A4FE10C0B60180E390E00E945E0AA2FE36
:1014100017C0A1FC03C088E790E002C088E590E017
:10142000B6010CC08A2D867859F0A1FE02C08BE26D
:1014300001C080E2A7FC8DE2B60190E00E945E0A46
:10144000891438F4B60180E390E00E945E0A9A9411
:10145000F7CF8A94F301E80DF11D8081B60190E089
:101460000E945E0A8110F5CF222009F442CEB60117
:1014700080E290E00E945E0A2A94F6CFF60186810F
:10148000978102C08FEF9FEF2B96E2E10C943D0B0A
:10149000FC010590615070400110D8F7809590953F
:1014A0008E0F9F1F0895FC01615070400190011044
:1014B000D8F7809590958E0F9F1F08950F931F93D7
:1014C000CF93DF93FB01238121FD03C08FEF9FEFBB
:1014D0002CC022FF16C046815781248135814217D6
:1014E000530744F4A081B1819D012F5F3F4F3183A9
:1014F00020838C93268137812F5F3F4F378326834C
:1015000014C08B01EC01FB010084F185E02D0995ED
:10151000892BE1F6D80116968D919C91179701962B
:1015200017969C938E931697CE01DF91CF911F91C2
:101530000F910895FA01AA27283051F1203181F145
:10154000E8946F936E7F6E5F7F4F8F4F9F4FAF4FCB
:10155000B1E03ED0B4E03CD0670F781F891F9A1FDE
:10156000A11D680F791F8A1F911DA11D6A0F711D92
:10157000811D911DA11D20D009F468943F912AE09E
:10158000269F11243019305D3193DEF6CF01089586
:10159000462F4770405D4193B3E00FD0C9F7F6CFB7
:1015A000462F4F70405D4A3318F0495D31FD40527F
:1015B000419302D0A9F7EACFB4E0A6959795879515
:1015C00077956795BA95C9F70097610571050895F4
:1015D0009B01AC010A2E06945795479537952795A0
:1015E000BA95C9F7620F731F841F951FA01D089538
:1015F000A8E1B0E042E050E00C94050B0E94130B10
:10160000272F0C94140BDC01CB01FC01F999FECFC0
:1016100006C0F2BDE1BDF89A319600B40D9241507A
:101620005040B8F70895262FF999FECF1FBA92BD02
:1016300081BD20BD0FB6F894FA9AF99A0FBE0196B3
:1016400008952F923F924F925F926F927F928F9266
:101650009F92AF92BF92CF92DF92EF92FF920F9341
:101660001F93CF93DF93CDB7DEB7CA1BDB0B0FB64B
:10167000F894DEBF0FBECDBF09942A883988488808
:101680005F846E847D848C849B84AA84B984C8849E
:10169000DF80EE80FD800C811B81AA81B981CE0F95
:1016A000D11D0FB6F894DEBF0FBECDBFED0108957A
:0416B000F894FFCFDC
:1016B4003200006A0420003F065B4F666D7D077FA1
:1016C4006F000201004D6F692065656D0D0A426F60
:1016D4006F74206E756D6D65723A200025732575E3
:1016E40000236C696368743D002374656D703D006C
:1016F400257325640021636F6E6E65637469652DBF
:10170400636865636B0040636F6E6E6563746965DF
:101714002D636865636B3D73756363657300216155
:1017240075746F6E6F6F6D00406175746F6E6F6F5F
:101734006D3D3000406175746F6E6F6F6D3D3100AB
:1017440021626F76656E6772656E7374656D706520
:101754007261747575720040626F76656E6772654A
:101764006E7374656D70657261747575723D256410
:1017740000216F6E6465726772656E7374656D7057
:101784006572617475757200406F6E64657267721C
:10179400656E7374656D70657261747575723D25DF
:1017A40064002173636865726D756974726F6C008F
:1017B4004073636865726D756974726F6C3D2564FE
:1017C40000216F6E6465726772656E7375697472F9
:1017D4006F6C00406F6E6465726772656E737569D5
:1017E40074726F6C3D25640021626F76656E67725A
:1017F400656E73756974726F6C0040626F76656EA6
:101804006772656E73756974726F6C3D256400212F
:101814006F6E6465726772656E736C696368746910
:101824006E74656E73697465697400406F6E646587
:10183400726772656E736C69636874696E74656EE1
:101844007369746569743D25640021626F76656E01
:101854006772656E736C69636874696E74656E73C0
:1018640069746569740040626F76656E6772656E4F
:10187400736C69636874696E74656E7369746569A1
:10188400743D2564002161667374616E6400236194
:10189400667374616E643D00216C69636874004012
:1018A4006C696368743D002174656D706572617460
:1018B400757572004074656D7065726174757572CA
:1018C4003D00216175746F6E6F6F6D3D3000406136
:1018D40075746F6E6F6F6D3D73756363657300210F
:1018E4006175746F6E6F6F6D3D310021626F766547
:1018F4006E6772656E7374656D706572617475750B
:10190400723D0040626F76656E6772656E737465D2
:101914006D70657261747575723D7375636365731B
:1019240000216F6E6465726772656E7374656D70A5
:10193400657261747575723D00406F6E646572679F
:1019440072656E7374656D70657261747575723DE0
:10195400737563636573002173636865726D75697C
:1019640074726F6C3D004073636865726D75697461
:10197400726F6C3D73756363657300406F6E67656A
:0C1984006C6469670040666F75740000B9
:00000001FF
