:100000000C9434000C9451000C9451000C94510049
:100010000C9451000C9451000C9451000C9451001C
:100020000C9451000C9451000C9451000C94C1009C
:100030000C9451000C9451000C9451000C945100FC
:100040000C9451000C9451000C9451000C945100EC
:100050000C9451000C9451000C9451000C945100DC
:100060000C9451000C94510011241FBECFEFD8E026
:10007000DEBFCDBF12E0A0E0B1E0E4E2FDE002C0EF
:1000800005900D92A831B107D9F722E0A8E1B2E0BE
:1000900001C01D92A137B207E1F70E94C8020C947B
:1000A00090060C9400000F931F93CF93DF93DC0115
:1000B000ECE1F2E020E030E0822FE90100811181E3
:1000C0002F5F3F4F3796012BB9F797E09C9FF001C8
:1000D0009D9FF00D1124E45EFD4FB183A0837383D7
:1000E0006283558344831682DF91CF911F910F91D4
:1000F000089527E0829FC0011124FC01E45EFD4FBA
:10010000118210821382128215821482168280E07C
:1001100008951F93CF93DF93CCE1D2E010E08E815E
:10012000882379F0E881F981309759F009958E811B
:1001300081508E838C819D81892B19F4812F0E949F
:1001400079001F5F2796153051F7DF91CF911F91EE
:100150000895CF93C0E08C2F0E947900CF5FC53007
:10016000D1F78FE79EE3909389008093880089E020
:100170008093810082E080936F00CF9108957894FE
:1001800008951F920F920FB60F9211248F939F9391
:10019000EF93FF93ECE1F2E080819181892B71F084
:1001A00082819381009739F486818F5F8683848171
:1001B0009581009719F0019793838283379682E0A7
:1001C000EF33F80749F7FF91EF919F918F910F90CF
:1001D0000FBE0F901F9018951092C50087E6809370
:1001E000C4001092C00088E18093C10086E0809333
:1001F000C200089530910001AFE3B2E080E090E0EA
:10020000831780F42091C00027FFFCCFFC012091D0
:10021000C6002D9301962D3099F7E15CFD4F1082B9
:1002200080E0089581E0089560E0262F30E0FC0131
:1002300001900020E9F7AF01481B590B241735073F
:10024000C8F44091C00045FFFCCFFC01E20FF31F52
:10025000208121110BC08DE08093C6008091C000E9
:1002600085FFFCCF8AE08093C60008952093C600E6
:100270006F5FDBCF08958091C00080780895EF9282
:10028000FF920F931F93CF93DF93CDB7DEB7E29723
:100290000FB6F894DEBF0FBECDBF80E090E00E94A5
:1002A000300689369A4749F069E67AE780E090E0BF
:1002B0000E94360600E010E007C082E090E00E9455
:1002C00030068C010F5F1F4F1F930F9381E091E069
:1002D0009F938F938BE291E09F938F931F9282E382
:1002E0008F93CE0101967C019F938F930E944D03C3
:1002F000C7010E941401B80182E090E00E94360616
:100300000FB6F894DEBF0FBECDBFE2960FB6F894DD
:10031000DEBF0FBECDBFDF91CF911F910F91FF9038
:10032000EF90089580E391E00C941401CF93DF9354
:1003300000D000D0CDB7DEB790910001EFE3F2E03E
:1003400080E0891711F121912D33E9F4DE01119636
:1003500090E0AD01282F30E0215C3D4FF901208174
:10036000222361F0943051F08F5F282F30E0215C20
:100370003D4FF90120812D939F5FECCFFA01E90FEA
:10038000F11D108202C08F5FDCCFCE0101960E946A
:1003900010030F900F900F900F90DF91CF91089561
:1003A0000F931F93CF93DF9300D000D0CDB7DEB76C
:1003B0006AE471E08FE392E00E942E03892B19F426
:1003C0008BE591E07BC068E671E08FE392E00E94EC
:1003D0002E03892B51F480911A02811103C082E708
:1003E00091E06CC087E791E069C06BE771E08FE353
:1003F00092E00E942E03892B19F4809118020AC002
:1004000065E971E08FE392E00E942E03892BE9F405
:1004100080911902282F082E000C330B3F938F93E5
:1004200082E991E09F938F938E010F5F1F4F1F937F
:100430000F930E947D03C8010E9414010F900F903A
:100440000F900F900F900F903BC06CEA71E08FE31C
:1004500092E00E942E03892B19F410921A0229C0EF
:1004600060EC71E08FE392E00E942E03892B21F46F
:1004700081E080931A021DC047E150E06CEC71E00E
:100480008FE392E00E943703892B29F40E949601A2
:10049000809318020EC047E150E064EE71E08FE3F4
:1004A00092E00E943703892B39F40E9496018093D1
:1004B000190288EB91E002C08CEF91E00E941401D8
:1004C0000F900F900F900F90DF91CF911F910F9190
:1004D00008958091C00087FF0AC00E94FA00811130
:1004E00002C00C94D00186E092E00C9414010895AF
:1004F00080917A00806480937A0080917A0086FDF2
:10050000FCCF8091790023E1829FC0011124845F98
:1005100091406AE070E00E94E802862F08950F93F0
:100520001F93CF93DF93CDB7DEB7E2970FB6F89462
:10053000DEBF0FBECDBF0E947802282F082E000C10
:10054000330B3F938F938CE092E09F938F9383E1E3
:1005500092E09F938F931F9282E38F938E010F5FA0
:100560001F4F1F930F930E944D03C8010E94140157
:100570000FB6F894DEBF0FBECDBFE2960FB6F8946B
:10058000DEBF0FBECDBFDF91CF911F910F910895B8
:100590000E94EC000E94A90080E680937C0087E81E
:1005A00080937A000E943F0141E050E068EE73E0E2
:1005B00089E692E00E94530040E45CE968EE73E053
:1005C0008FE892E00E94530078940E948900FDCF4A
:1005D00097FB072E16F4009407D077FD09D00E94F0
:1005E000FC0207FC05D03EF4909581959F4F08953D
:1005F000709561957F4F0895AA1BBB1B51E107C001
:10060000AA1FBB1FA617B70710F0A61BB70B881FA2
:10061000991F5A95A9F780959095BC01CD01089531
:10062000FC0188279927E89421912032E9F32930A9
:1006300010F02E30C8F32B3241F02D3239F468948B
:1006400004C00E944503820F911D219120532A303E
:10065000C0F31EF4909581959F4F0895FB01DC0136
:100660008D91019080190110D9F3990B0895FB0128
:10067000DC014150504030F08D910190801919F407
:100680000020B9F7881B990B08957AE0979F902D69
:10069000879F802D910D11240895AEE0B0E0E3E531
:1006A000F3E00C9467060D891E898F89988D26E0EA
:1006B0002C831A83098397FF02C080E090E801979A
:1006C0009E838D83AE01455E5F4F698D7A8DCE012D
:1006D00001960E949F034D815E8157FD0AC02F81C4
:1006E0003885421753070CF49A01F801E20FF31F03
:1006F00010822E96E4E00C948306AEE0B0E0E3E8CE
:10070000F3E00C9467060D891E8986E08C831A83BA
:1007100009838FEF9FE79E838D83AE01475E5F4F16
:100720006F89788DCE0101960E949F03EF81F88535
:10073000E00FF11F10822E96E4E00C948306ABE0EC
:10074000B0E0E5EAF3E00C9459066C017B018A0104
:10075000FC0117821682838181FFCCC1CE010196F4
:100760003C01F6019381F70193FD859193FF8191FF
:100770007F01882309F4BAC1853239F493FD85914C
:1007800093FF81917F01853229F4B60190E00E94A8
:100790009605E7CF912C212C312CFFE1F315D8F0F1
:1007A0008B3279F038F4803279F08332A1F4232D42
:1007B00020611DC08D3261F0803369F4232D2160EA
:1007C00016C0832D8260382EE32DE4603E2E2AC0B1
:1007D000F32DF8601DC037FC2DC020ED280F2A3006
:1007E00040F08E32B9F436FC81C1232D2064322EC4
:1007F00019C036FE06C08AE0989E200D1124922E64
:1008000011C0EAE02E9E200D1124222EF32DF0625D
:100810003F2E08C08C3621F4832D8068382E02C00C
:10082000883641F4F70193FD859193FF81917F0113
:100830008111B3CF982F9F7D9554933028F40C5F8E
:100840001F4F9FE399830DC0833631F0833771F0DA
:10085000833509F059C021C0F801808189830E5F7A
:100860001F4F88248394912C530113C02801F2E078
:100870004F0E511CF801A080B18036FE03C0692DD7
:1008800070E002C06FEF7FEFC5010E948B054C0145
:100890008201F32DFF773F2E16C0280122E0420E81
:1008A000511CF801A080B18036FE03C0692D70E0B4
:1008B00002C06FEF7FEFC5010E9480054C01F32D50
:1008C000F0683F2E820133FC1BC0822D90E0881619
:1008D0009906B0F4B60180E290E00E9496052A9451
:1008E000F4CFF50137FC859137FE81915F01B601A8
:1008F00090E00E94960521102A9421E0821A910826
:100900008114910471F7E8C0843611F0893641F5FD
:10091000F80137FE07C060817181828193810C5F8D
:100920001F4F08C060817181072E000C880B990B46
:100930000E5F1F4FF32DFF763F2E97FF09C0909556
:100940008095709561957F4F8F4F9F4FF0683F2E38
:100950002AE030E0A3010E94D205882E861845C007
:10096000853731F4232D2F7EB22E2AE030E025C0CA
:10097000932D997FB92E8F36C1F018F4883579F010
:10098000B5C0803719F0883721F0B0C0E92FE06199
:10099000BE2EB4FE0DC0FB2DF460BF2E09C034FE88
:1009A0000AC0292F2660B22E06C028E030E005C01C
:1009B00020E130E002C020E132E0F801B7FE07C0DC
:1009C00060817181828193810C5F1F4F06C06081BD
:1009D000718180E090E00E5F1F4FA3010E94D2055D
:1009E000882E8618FB2DFF773F2E36FE0DC0232D57
:1009F0002E7FA22E891458F434FE0BC032FC09C09D
:100A0000832D8E7EA82E05C0B82CA32C03C0B82C35
:100A100001C0B92CA4FE0FC0FE01E80DF11D8081BC
:100A2000803321F49A2D997EA92E09C0A2FE06C01A
:100A3000B394B39404C08A2D867809F0B394A3FCD0
:100A400011C0A0FE06C0B21488F4280C922C9B188A
:100A50000EC0B21460F4B60180E290E00E949605E8
:100A6000B394F7CFB21418F42B1802C0982C212C91
:100A7000A4FE10C0B60180E390E00E949605A2FE9D
:100A800017C0A1FC03C088E790E002C088E590E0B1
:100A9000B6010CC08A2D867859F0A1FE02C08BE207
:100AA00001C080E2A7FC8DE2B60190E00E949605AD
:100AB000891438F4B60180E390E00E9496059A9478
:100AC000F7CF8A94F301E80DF11D8081B60190E023
:100AD0000E9496058110F5CF222009F442CEB6017E
:100AE00080E290E00E9496052A94F6CFF601868176
:100AF000978102C08FEF9FEF2B96E2E10C94750671
:100B0000FC010590615070400110D8F780959095D8
:100B10008E0F9F1F0895FC016150704001900110DD
:100B2000D8F7809590958E0F9F1F08950F931F9370
:100B3000CF93DF93FB01238121FD03C08FEF9FEF54
:100B40002CC022FF16C0468157812481358142176F
:100B5000530744F4A081B1819D012F5F3F4F318342
:100B600020838C93268137812F5F3F4F37832683E5
:100B700014C08B01EC01FB010084F185E02D099587
:100B8000892BE1F6D80116968D919C9117970196C5
:100B900017969C938E931697CE01DF91CF911F915C
:100BA0000F910895FA01AA27283051F1203181F1DF
:100BB000E8946F936E7F6E5F7F4F8F4F9F4FAF4F65
:100BC000B1E03ED0B4E03CD0670F781F891F9A1F78
:100BD000A11D680F791F8A1F911DA11D6A0F711D2C
:100BE000811D911DA11D20D009F468943F912AE038
:100BF000269F11243019305D3193DEF6CF01089520
:100C0000462F4770405D4193B3E00FD0C9F7F6CF50
:100C1000462F4F70405D4A3318F0495D31FD405218
:100C2000419302D0A9F7EACFB4E0A69597958795AE
:100C300077956795BA95C9F700976105710508958D
:100C40009B01AC010A2E0694579547953795279539
:100C5000BA95C9F7620F731F841F951FA01D0895D1
:100C6000A8E1B0E042E050E00C943D060E944B0643
:100C7000272F0C944C06DC01CB01FC01F999FECF27
:100C800006C0F2BDE1BDF89A319600B40D92415014
:100C90005040B8F70895262FF999FECF1FBA92BD9C
:100CA00081BD20BD0FB6F894FA9AF99A0FBE01964D
:100CB00008952F923F924F925F926F927F928F9200
:100CC0009F92AF92BF92CF92DF92EF92FF920F93DB
:100CD0001F93CF93DF93CDB7DEB7CA1BDB0B0FB6E5
:100CE000F894DEBF0FBECDBF09942A8839884888A2
:100CF0005F846E847D848C849B84AA84B984C88438
:100D0000DF80EE80FD800C811B81AA81B981CE0F2E
:100D1000D11D0FB6F894DEBF0FBECDBFED01089513
:040D2000F894FFCF75
:100D24003254656D70657261747575726D65657444
:100D340073656E736F722076302E310D0A426F6FB9
:100D440074206E756D6D65723A20002573257500EB
:100D5400546573746265726963687420756974207C
:100D64007363686564756C65720021636F6E6E658C
:100D7400637469652D636865636B004074656D70A9
:100D84006572617475757200216175746F6E6F6F31
:100D94006D00406E656500406A610021626F766592
:100DA4006E6772656E7374656D7065726174757566
:100DB4007200256400216F6E6465726772656E73DC
:100DC40074656D70657261747575720021617574F6
:100DD4006F6E6F6F6D3D30004073756363657300B4
:100DE400216175746F6E6F6F6D3D310021626F7696
:100DF400656E6772656E7374656D70657261747526
:100E040075723D00216F6E6465726772656E7374EE
:100E1400656D70657261747575723D00406F6E67C3
:100E2400656C6469670040666F7574002374656D52
:080E3400703D002573256900E3
:00000001FF
