:100000000C9434000C9451000C9451000C94510049
:100010000C9451000C9451000C9451000C9451001C
:100020000C9451000C9451000C9451000C94C1009C
:100030000C9451000C9451000C9451000C945100FC
:100040000C9451000C9451000C9451000C945100EC
:100050000C9451000C9451000C9451000C945100DC
:100060000C9451000C94510011241FBECFEFD8E026
:10007000DEBFCDBF13E0A0E0B1E0E4E5FFE002C0E9
:1000800005900D92A231B107D9F723E0A2E1B3E0C8
:1000900001C01D92A137B207E1F70E94D7030C946B
:1000A000A8070C9400000F931F93CF93DF93DC01FC
:1000B000ECE1F3E020E030E0822FE90100811181E2
:1000C0002F5F3F4F3796012BB9F797E09C9FF001C8
:1000D0009D9FF00D1124E45EFC4FB183A0837383D8
:1000E0006283558344831682DF91CF911F910F91D4
:1000F000089527E0829FC0011124FC01E45EFC4FBB
:10010000118210821382128215821482168280E07C
:1001100008951F93CF93DF93CCE1D3E010E08E815D
:10012000882379F0E881F981309759F009958E811B
:1001300081508E838C819D81892B19F4812F0E949F
:1001400079001F5F2796153051F7DF91CF911F91EE
:100150000895CF93C0E08C2F0E947900CF5FC53007
:10016000D1F78FE79EE3909389008093880089E020
:100170008093810082E080936F00CF9108957894FE
:1001800008951F920F920FB60F9211248F939F9391
:10019000EF93FF93ECE1F3E080819181892B71F083
:1001A00082819381009739F486818F5F8683848171
:1001B0009581009719F0019793838283379683E0A6
:1001C000EF33F80749F7FF91EF919F918F910F90CF
:1001D0000FBE0F901F9018951092C50087E6809370
:1001E000C4001092C00088E18093C10086E0809333
:1001F000C200089530910001AFE3B3E080E090E0E9
:10020000831780F42091C00027FFFCCFFC012091D0
:10021000C6002D9301962D3099F7E15CFC4F1082BA
:1002200080E0089581E0089560E0262F30E0FC0131
:1002300001900020E9F7AF01481B590B241735073F
:10024000C8F44091C00045FFFCCFFC01E20FF31F52
:10025000208121110BC08DE08093C6008091C000E9
:1002600085FFFCCF8AE08093C60008952093C600E6
:100270006F5FDBCF08958091C00080780895EF9282
:10028000FF920F931F93CF93DF93CDB7DEB7E29723
:100290000FB6F894DEBF0FBECDBF80E090E00E94A5
:1002A000480789369A4749F069E67AE780E090E0A6
:1002B0000E944E0700E010E007C082E090E00E943C
:1002C00048078C010F5F1F4F1F930F9384E091E04D
:1002D0009F938F938BE191E09F938F931F9282E383
:1002E0008F93CE0101967C019F938F930E946504AA
:1002F000C7010E941401B80182E090E00E944E07FD
:100300000FB6F894DEBF0FBECDBFE2960FB6F894DD
:10031000DEBF0FBECDBFDF91CF911F910F91FF9038
:10032000EF900895CF93DF9300D000D0CDB7DEB724
:1003300090910001EFE3F3E080E0891711F1219142
:100340002D33E9F4DE01119690E0AD01282F30E065
:10035000215C3C4FF9012081222361F0933051F060
:100360008F5F282F30E0215C3C4FF90120812D93D5
:100370009F5FECCFFA01E90FF11D108202C08F5F81
:10038000DCCFCE0101960E9428040F900F900F90B1
:100390000F90DF91CF9108950F931F93CF93DF9329
:1003A000CDB7DEB7E2970FB6F894DEBF0FBECDBF74
:1003B00060E271E08FE393E00E944604892B19F418
:1003C00081E391E0DDC06EE371E08FE393E00E9492
:1003D0004604892B51F480911A03811103C088E4EB
:1003E00091E0CEC08DE491E0CBC061E571E08FE398
:1003F00093E00E944604892B59F480911803282F1A
:10040000082E000C330B3F938F9388E691E05DC07C
:1004100062E871E08FE393E00E944604892B59F46F
:1004200080911903282F082E000C330B3F938F93D4
:1004300089E991E04AC063EB71E08FE393E00E94A9
:100440004604892B39F4809113031F928F9381EC1A
:1004500091E03BC062ED71E08FE393E00E944604BF
:10046000892B39F4809115031F928F9384EE91E0CC
:100470002CC069EF71E08FE393E00E944604892B62
:1004800039F4809114031F928F938BE092E01DC08A
:1004900060E272E08FE393E00E944604892B39F416
:1004A000809116031F928F938CE392E00EC06BE550
:1004B00072E08FE393E00E944604892BC9F4809197
:1004C00017031F928F9387E792E09F938F938E017C
:1004D0000F5F1F4F1F930F930E949504C8010E9446
:1004E00014010F900F900F900F900F900F904AC033
:1004F00066E972E08FE393E00E944604892B19F4C9
:1005000010921A0338C06AEA72E08FE393E00E9407
:100510004604892B21F481E080931A032CC047E123
:1005200050E066EB72E08FE393E00E944F04892B6A
:1005300029F40E949201809318031DC047E150E006
:100540006EEC72E08FE393E00E944F04892B29F454
:100550000E949201809319030EC04EE050E066EEB7
:1005600072E08FE393E00E944F04892B39F40E94DC
:1005700092018093120382EA92E002C085EF92E03A
:100580000E941401E2960FB6F894DEBF0FBECDBFF5
:10059000DF91CF911F910F9108958091C00087FF47
:1005A0000AC00E94FA00811102C00C94CC018FEFA6
:1005B00092E00C941401089580E680937C00809171
:1005C0007A00806480937A0080917A0086FDFCCF67
:1005D0008091790024E0829FC0011124845F9140C2
:1005E0006AE070E00E941404CB0108950F931F93FA
:1005F000CF93DF93CDB7DEB7E2970FB6F894DEBFA7
:100600000FBECDBF0E94DC029F938F9385E093E0E5
:100610009F938F938CE093E09F938F931F9282E33D
:100620008F938E010F5F1F4F1F930F930E946504DE
:10063000C8010E9414010FB6F894DEBF0FBECDBFF3
:10064000E2960FB6F894DEBF0FBECDBFDF91CF911B
:100650001F910F91089580911A038130C1F40E9477
:10066000DC0220911903022E000C330B28173907E6
:1006700064F420911803022E000C330B82179307A9
:1006800024F484E6809312030895109212030895CF
:1006900081E680937C0080917A00806480937A0068
:1006A00080917A0086FDFCCF80917900089545B154
:1006B00021E030E061110AC0B90102C0660F771F66
:1006C0008A95E2F7CB018095842308C0B90102C066
:1006D000660F771F8A95E2F7CB01842B85B90895C1
:1006E000CF93DF93D82FC8E029986D2F617080E0F9
:1006F0000E945703D695299AC150B1F7DF91CF9147
:1007000008952A980E9470032A9A08958FEF84B959
:1007100089E80C948103CF9380E40E9481032A9896
:1007200080EC0E947003C0E180E00E947003C15021
:10073000D9F72A9ACF910895CF93DF93D82FC0E0AD
:1007400084E40E9481032A988C2F880F8F530E9483
:10075000700381E00E9470032A9ACF5FCD1780F367
:1007600084E40E9481032A988C2F880F8F530E9463
:10077000700380E00E9470032A9ACF5FC83080F334
:10078000DF91CF91089590911203809113038917FF
:1007900010F4845F03C0981718F48C5080931303EF
:1007A000809113036CE00E9408040C949C030E9447
:1007B000EC000E94A90087E880937A000E948603DB
:1007C0000E948B030E943F0141E050E068EE73E01D
:1007D0008DEC92E00E94530040ED57E068EE73E02C
:1007E00086EF92E00E94530040ED57E068EE73E020
:1007F00083EC93E00E94530040ED57E060E177E224
:100800008BE293E00E94530078940E948900FDCF10
:10081000991B79E004C0991F961708F0961B881F52
:100820007A95C9F780950895AA1BBB1B51E107C0B3
:10083000AA1FBB1FA617B70710F0A61BB70B881F70
:10084000991F5A95A9F780959095BC01CD010895FF
:10085000FC0188279927E89421912032E9F3293077
:1008600010F02E30C8F32B3241F02D3239F4689459
:1008700004C00E945D04820F911D219120532A30F3
:10088000C0F31EF4909581959F4F0895FB01DC0104
:100890008D91019080190110D9F3990B0895FB01F6
:1008A000DC014150504030F08D910190801919F4D5
:1008B0000020B9F7881B990B08957AE0979F902D37
:1008C000879F802D910D11240895AEE0B0E0EBE6F6
:1008D000F4E00C947F070D891E898F89988D26E09E
:1008E0002C831A83098397FF02C080E090E8019768
:1008F0009E838D83AE01455E5F4F698D7A8DCE01FB
:1009000001960E94B7044D815E8157FD0AC02F8178
:100910003885421753070CF49A01F801E20FF31FD0
:1009200010822E96E4E00C949B07AEE0B0E0EBE979
:10093000F4E00C947F070D891E8986E08C831A836E
:1009400009838FEF9FE79E838D83AE01475E5F4FE4
:100950006F89788DCE0101960E94B704EF81F885EA
:10096000E00FF11F10822E96E4E00C949B07ABE0A1
:10097000B0E0EDEBF4E00C9471076C017B018A01AF
:10098000FC0117821682838181FFCCC1CE010196C2
:100990003C01F6019381F70193FD859193FF8191CD
:1009A0007F01882309F4BAC1853239F493FD85911A
:1009B00093FF81917F01853229F4B60190E00E9476
:1009C000AE06E7CF912C212C312CFFE1F315D8F0A6
:1009D0008B3279F038F4803279F08332A1F4232D10
:1009E00020611DC08D3261F0803369F4232D2160B8
:1009F00016C0832D8260382EE32DE4603E2E2AC07F
:100A0000F32DF8601DC037FC2DC020ED280F2A30D3
:100A100040F08E32B9F436FC81C1232D2064322E91
:100A200019C036FE06C08AE0989E200D1124922E31
:100A300011C0EAE02E9E200D1124222EF32DF0622B
:100A40003F2E08C08C3621F4832D8068382E02C0DA
:100A5000883641F4F70193FD859193FF81917F01E1
:100A60008111B3CF982F9F7D9554933028F40C5F5C
:100A70001F4F9FE399830DC0833631F0833771F0A8
:100A8000833509F059C021C0F801808189830E5F48
:100A90001F4F88248394912C530113C02801F2E046
:100AA0004F0E511CF801A080B18036FE03C0692DA5
:100AB00070E002C06FEF7FEFC5010E94A3064C01FA
:100AC0008201F32DFF773F2E16C0280122E0420E4F
:100AD000511CF801A080B18036FE03C0692D70E082
:100AE00002C06FEF7FEFC5010E9498064C01F32D05
:100AF000F0683F2E820133FC1BC0822D90E08816E7
:100B00009906B0F4B60180E290E00E94AE062A9405
:100B1000F4CFF50137FC859137FE81915F01B60175
:100B200090E00E94AE0621102A9421E0821A9108DA
:100B30008114910471F7E8C0843611F0893641F5CB
:100B4000F80137FE07C060817181828193810C5F5B
:100B50001F4F08C060817181072E000C880B990B14
:100B60000E5F1F4FF32DFF763F2E97FF09C0909524
:100B70008095709561957F4F8F4F9F4FF0683F2E06
:100B80002AE030E0A3010E94EA06882E861845C0BC
:100B9000853731F4232D2F7EB22E2AE030E025C098
:100BA000932D997FB92E8F36C1F018F4883579F0DE
:100BB000B5C0803719F0883721F0B0C0E92FE06167
:100BC000BE2EB4FE0DC0FB2DF460BF2E09C034FE56
:100BD0000AC0292F2660B22E06C028E030E005C0EA
:100BE00020E130E002C020E132E0F801B7FE07C0AA
:100BF00060817181828193810C5F1F4F06C060818B
:100C0000718180E090E00E5F1F4FA3010E94EA0611
:100C1000882E8618FB2DFF773F2E36FE0DC0232D24
:100C20002E7FA22E891458F434FE0BC032FC09C06A
:100C3000832D8E7EA82E05C0B82CA32C03C0B82C03
:100C400001C0B92CA4FE0FC0FE01E80DF11D80818A
:100C5000803321F49A2D997EA92E09C0A2FE06C0E8
:100C6000B394B39404C08A2D867809F0B394A3FC9E
:100C700011C0A0FE06C0B21488F4280C922C9B1858
:100C80000EC0B21460F4B60180E290E00E94AE069D
:100C9000B394F7CFB21418F42B1802C0982C212C5F
:100CA000A4FE10C0B60180E390E00E94AE06A2FE52
:100CB00017C0A1FC03C088E790E002C088E590E07F
:100CC000B6010CC08A2D867859F0A1FE02C08BE2D5
:100CD00001C080E2A7FC8DE2B60190E00E94AE0662
:100CE000891438F4B60180E390E00E94AE069A942D
:100CF000F7CF8A94F301E80DF11D8081B60190E0F1
:100D00000E94AE068110F5CF222009F442CEB60132
:100D100080E290E00E94AE062A94F6CFF60186812A
:100D2000978102C08FEF9FEF2B96E2E10C948D0725
:100D3000FC010590615070400110D8F780959095A6
:100D40008E0F9F1F0895FC016150704001900110AB
:100D5000D8F7809590958E0F9F1F08950F931F933E
:100D6000CF93DF93FB01238121FD03C08FEF9FEF22
:100D70002CC022FF16C0468157812481358142173D
:100D8000530744F4A081B1819D012F5F3F4F318310
:100D900020838C93268137812F5F3F4F37832683B3
:100DA00014C08B01EC01FB010084F185E02D099555
:100DB000892BE1F6D80116968D919C911797019693
:100DC00017969C938E931697CE01DF91CF911F912A
:100DD0000F910895FA01AA27283051F1203181F1AD
:100DE000E8946F936E7F6E5F7F4F8F4F9F4FAF4F33
:100DF000B1E03ED0B4E03CD0670F781F891F9A1F46
:100E0000A11D680F791F8A1F911DA11D6A0F711DF9
:100E1000811D911DA11D20D009F468943F912AE005
:100E2000269F11243019305D3193DEF6CF010895ED
:100E3000462F4770405D4193B3E00FD0C9F7F6CF1E
:100E4000462F4F70405D4A3318F0495D31FD4052E6
:100E5000419302D0A9F7EACFB4E0A695979587957C
:100E600077956795BA95C9F700976105710508955B
:100E70009B01AC010A2E0694579547953795279507
:100E8000BA95C9F7620F731F841F951FA01D08959F
:100E9000A8E1B0E042E050E00C9455070E946307DF
:100EA000272F0C946407DC01CB01FC01F999FECFDC
:100EB00006C0F2BDE1BDF89A319600B40D924150E2
:100EC0005040B8F70895262FF999FECF1FBA92BD6A
:100ED00081BD20BD0FB6F894FA9AF99A0FBE01961B
:100EE00008952F923F924F925F926F927F928F92CE
:100EF0009F92AF92BF92CF92DF92EF92FF920F93A9
:100F00001F93CF93DF93CDB7DEB7CA1BDB0B0FB6B2
:100F1000F894DEBF0FBECDBF09942A88398848886F
:100F20005F846E847D848C849B84AA84B984C88405
:100F3000DF80EE80FD800C811B81AA81B981CE0FFC
:100F4000D11D0FB6F894DEBF0FBECDBFED010895E1
:040F5000F894FFCF43
:100F5400320201004D6F692065656D0D0A426F6FA5
:100F640074206E756D6D65723A20002573257500C9
:100F740021636F6E6E65637469652D636865636B69
:100F8400004074656D7065726174757572002161DD
:100F940075746F6E6F6F6D00406E656500406A61B9
:100FA4000021626F76656E6772656E7374656D702D
:100FB400657261747575720040626F76656E6772F2
:100FC400656E7374656D70657261747575723D25B7
:100FD4006400216F6E6465726772656E7374656D0B
:100FE400706572617475757200406F6E64657267C6
:100FF40072656E7374656D70657261747575723D3A
:101004002564002173636865726D756974726F6C11
:10101400004073636865726D756974726F6C3D2509
:101024006400216F6E6465726772656E73756974AE
:10103400726F6C00406F6E6465726772656E737573
:101044006974726F6C3D25640021626F76656E670A
:1010540072656E73756974726F6C0040626F766549
:101064006E6772656E73756974726F6C3D2564008A
:10107400216F6E6465726772656E736C6963687400
:10108400696E74656E73697465697400406F6E642B
:1010940065726772656E736C69636874696E746592
:1010A4006E7369746569743D25640021626F7665A9
:1010B4006E6772656E736C69636874696E74656E6D
:1010C4007369746569740040626F76656E677265F2
:1010D4006E736C69636874696E74656E7369746544
:1010E40069743D256400216175746F6E6F6F6D3D89
:1010F40030004073756363657300216175746F6EAE
:101104006F6F6D3D310021626F76656E6772656E3B
:101114007374656D70657261747575723D00216FCD
:101124006E6465726772656E7374656D7065726105
:10113400747575723D002173636865726D756974A9
:10114400726F6C3D00406F6E67656C646967004048
:10115400666F7574002374656D703D002573256496
:02116400000089
:00000001FF
