:100000000C9434000C94EE000C9451000C945100AC
:100010000C9451000C9451000C9451000C9451001C
:100020000C9451000C9451000C9451000C94C3009A
:100030000C9451000C942F010C9451000C9451001D
:100040000C9451000C9451000C9451000C945100EC
:100050000C9451000C9451000C9451000C945100DC
:100060000C9451000C94510011241FBECFEFD8E026
:10007000DEBFCDBF13E0A0E0B1E0EEEDF0E102C0E5
:1000800005900D92A83AB107D9F724E0A8EAB3E0A9
:1000900001C01D92AE30B207E1F70E9498040C94A3
:1000A0006D080C9400000F931F93CF93DF93DC0136
:1000B000E9EBF3E020E030E0822FE90100811181DB
:1000C0002F5F3F4F3796012BB9F797E09C9FF001C8
:1000D0009D9FF00D1124E754FC4FB183A0837383DF
:1000E0006283558344831682DF91CF911F910F91D4
:1000F000089527E0829FC0011124FC01E754FC4FC2
:10010000118210821382128215821482168280E07C
:1001100008951F93CF93DF93C9EBD3E010E08E8156
:10012000882379F0E881F981309759F009958E811B
:1001300081508E838C819D81892B19F4812F0E949F
:1001400079001F5F2796153051F7DF91CF911F91EE
:100150000895CF93C0E08C2F0E947900CF5FC53007
:10016000D1F78FE79EE3909389008093880089E020
:100170008093810080916F00826080936F00CF91A7
:100180000895789408951F920F920FB60F9211243C
:100190008F939F93EF93FF93E9EBF3E0808191813D
:1001A000892B71F082819381009739F486818F5F6A
:1001B000868384819581009719F0019793838283C8
:1001C000379683E0EC3DF80749F7FF91EF919F9157
:1001D0008F910F900FBE0F901F9018951F920F9246
:1001E0000FB60F9211242F933F938F939F9390916B
:1001F000B8039130A1F48091B603811110C04A9BDD
:100200000EC08091810082608093810010928500F1
:10021000109284009093B6031092B80317C0909187
:10022000B603913099F44A9911C0809181008D7F75
:100230008093810020918400309185003093B50334
:100240002093B4031092B6039093B7039F918F91BC
:100250003F912F910F900FBE0F901F9018951F92F6
:100260000F920FB60F9211248F939F93EF93FF93EA
:10027000E1E8F0E080818D7F80838091840090911F
:1002800085009093B5038093B40381E08093B70316
:100290001092B603FF91EF919F918F910F900FBE37
:1002A0000F901F9018951092C50087E68093C400A8
:1002B0001092C00088E18093C10086E08093C20064
:1002C000089530910001ACEDB3E080E090E0831739
:1002D00080F42091C00027FFFCCFFC012091C600D4
:1002E0002D9301962D3099F7E452FC4F108280E057
:1002F000089581E0089560E0262F30E0FC01019030
:100300000020E9F7AF01481B590B24173507C8F443
:100310004091C00045FFFCCFFC01E20FF31F20819C
:1003200021110BC08DE08093C6008091C00085FF35
:10033000FCCF8AE08093C60008952093C6006F5FCB
:10034000DBCF08958091C00080780895EF92FF92EE
:100350000F931F93CF93DF93CDB7DEB7E2970FB61E
:10036000F894DEBF0FBECDBF80E090E00E940D0884
:1003700089369A4749F069E67AE780E090E00E9482
:10038000130800E010E007C082E090E00E940D0832
:100390008C010F5F1F4F1F930F9384E091E09F9399
:1003A0008F938BE191E09F938F931F9282E38F93C2
:1003B000CE0101967C019F938F930E942A05C7016D
:1003C0000E947B01B80182E090E00E9413080FB602
:1003D000F894DEBF0FBECDBFE2960FB6F894DEBF35
:1003E0000FBECDBFDF91CF911F910F91FF90EF9086
:1003F0000895CF93DF93CDB7DEB72A970FB6F89461
:10040000DEBF0FBECDBF90910001ECEDF3E080E0C8
:10041000891711F121912D33E9F4DE01119690E055
:10042000AD01282F30E024523C4FF90120812223D6
:1004300061F0993051F08F5F282F30E024523C4F0B
:10044000F90120812D939F5FECCFFA01E90FF11D97
:10045000108202C08F5FDCCFCE0101960E94E604BD
:100460002A960FB6F894DEBF0FBECDBFDF91CF91B5
:100470000895239AEFE6F0E08081816080831092F6
:1004800085001092840081E0809369008DBB0895FF
:1004900081E08093B8032B9A85E38A95F1F70000F9
:1004A0002B988091B7038823E1F38091B403909156
:1004B000B503089581E680937C0080917A00806482
:1004C00080937A0080917A0086FDFCCF209179009C
:1004D00030E0A4E6B0E00E94D704872F08950F9380
:1004E0001F93CF93DF93CDB7DEB7E2970FB6F894A3
:1004F000DEBF0FBECDBF60E271E08CED93E00E94E5
:1005000004058E010F5F1F4F892B19F461E371E021
:1005100011C169E471E08CED93E00E940405892B20
:1005200051F48091B203811103C063E571E002C10F
:100530006FE571E0FFC06BE671E08CED93E00E9427
:100540000405892B49F48091AF038F938091AE030A
:100550008F9382E891E05BC06CE971E08CED93E0F1
:100560000E940405892B49F48091B1038F938091F7
:10057000B0038F9383EB91E04AC06DEC71E08CED9A
:1005800093E00E940405892B39F48091A9031F92FE
:100590008F938BED91E03BC06CEE71E08CED93E0BE
:1005A0000E940405892B39F48091AB031F928F932D
:1005B0008EEF91E02CC063E172E08CED93E00E943D
:1005C0000405892B39F48091AA031F928F9385E249
:1005D00092E01DC06AE372E08CED93E00E94040596
:1005E000892B39F48091AC031F928F9386E592E0BA
:1005F0000EC065E772E08CED93E00E940405892B44
:1006000099F48091AD031F928F9381E992E09F93BB
:100610008F931F930F930E945A050F900F900F9086
:100620000F900F900F9089C060EB72E08CED93E01B
:100630000E940405892B59F40E9448029F938F93CE
:1006400089EB92E09F938F9383EC92E012C068EC69
:1006500072E08CED93E00E940405892BC9F40E949E
:100660005A021F928F938FEC92E09F938F938BE1AE
:1006700091E09F938F931F9282E38F931F930F9329
:100680000E942A050FB6F894DEBF0FBECDBF55C03D
:1006900067ED72E08CED93E00E940405892B19F45C
:1006A0001092B2030BC064EF72E08CED93E00E94F5
:1006B0000405892B31F481E08093B20363EE72E08C
:1006C00039C047E150E060E073E08CED93E00E94B8
:1006D0001405892B49F40E94F9019093AF0380938C
:1006E000AE0368E173E026C047E150E066E373E0E3
:1006F0008CED93E00E941405892B49F40E94F901C6
:100700009093B1038093B0036EE473E013C04EE0A6
:1007100050E06CE673E08CED93E00E941405892BA9
:1007200039F40E94F9018093A8036BE773E002C0DB
:1007300060E973E0C8010E940D05C8010E947B01B9
:10074000E2960FB6F894DEBF0FBECDBFDF91CF911A
:100750001F910F9108958091C00087FF0AC00E94E9
:100760006101811102C00C946F028AE993E00C943C
:100770007B01089580E480937C0080917A008064FE
:1007800080937A0080917A0086FDFCCF20917800DA
:1007900030917900A8E8B3E10E94D704DC01CB01D5
:1007A0002AE0B695A795979587952A95D1F7845F06
:1007B000914008950F931F93CF93DF93CDB7DEB78A
:1007C000E2970FB6F894DEBF0FBECDBF0E94BA030A
:1007D0009F938F9380EA93E09F938F9383EC92E0B3
:1007E0009F938F931F9282E38F938E010F5F1F4F12
:1007F0001F930F930E942A05C8010E947B010FB628
:10080000F894DEBF0FBECDBFE2960FB6F894DEBF00
:100810000FBECDBFDF91CF911F910F9108958091B1
:10082000B2038130B1F40E94BA032091B003309139
:10083000B103281739075CF42091AE033091AF0360
:100840008217930724F484E68093A80308951092F6
:10085000A803089545B121E030E061110AC0B90153
:1008600002C0660F771F8A95E2F7CB01809584233B
:1008700008C0B90102C0660F771F8A95E2F7CB0165
:10088000842B85B90895CF93DF93D82FC8E029989A
:100890006D2F617080E00E942A04D695299AC1507C
:1008A000B1F7DF91CF9108952A980E9443042A9AC4
:1008B000089584B1876084B989E80C945404CF9377
:1008C00080E40E9454042A9880EC0E944304C0E112
:1008D00080E00E944304C150D9F72A9ACF9108952D
:1008E000CF93C0E084E40E9454042A988C2F880F90
:1008F0008F530E94430481E00E9443042A9ACF5FF1
:10090000C83081F7CF9108959091A8038091A903F1
:10091000891710F4845F03C0981718F48C508093E3
:10092000A9038091A9036CE00E94CB040C9470048D
:100930000E9453010E94A90087E880937A000E94D8
:1009400059040E945F040E9439020E94A60141E0FE
:1009500050E068EE73E08BEA93E00E94530040EDB4
:1009600057E068EE73E08AED93E00E94530040ED9B
:1009700057E068EE73E084E894E00E94530040ED95
:1009800057E060E177E28FE094E00E9453007894B2
:100990000E948900FDCF991B79E004C0991F96172A
:1009A00008F0961B881F7A95C9F780950895A29F35
:1009B000B001B39FC001A39F700D811D1124911D33
:1009C000B29F700D811D1124911D0895FC0188278F
:1009D0009927E89421912032E9F3293010F02E3044
:1009E000C8F32B3241F02D3239F4689404C00E94D0
:1009F0002205820F911D219120532A30C0F31EF44D
:100A0000909581959F4F0895FB01DC018D91019098
:100A100080190110D9F3990B0895FB01DC010190B5
:100A20000D920020E1F70895FB01DC014150504098
:100A300030F08D910190801919F40020B9F7881BCE
:100A4000990B08957AE0979F902D879F802D910DA7
:100A500011240895AEE0B0E0E0E3F5E00C94440822
:100A60000D891E898F89988D26E02C831A8309832E
:100A700097FF02C080E090E801979E838D83AE01CE
:100A8000455E5F4F698D7A8DCE0101960E947C058F
:100A90004D815E8157FD0AC02F813885421753076B
:100AA0000CF49A01F801E20FF31F10822E96E4E095
:100AB0000C946008AEE0B0E0E0E6F5E00C94440889
:100AC0000D891E8986E08C831A8309838FEF9FE747
:100AD0009E838D83AE01475E5F4F6F89788DCE0117
:100AE00001960E947C05EF81F885E00FF11F1082CE
:100AF0002E96E4E00C946008ABE0B0E0E2E8F5E0AC
:100B00000C9436086C017B018A01FC011782168265
:100B1000838181FFCCC1CE0101963C01F601938116
:100B2000F70193FD859193FF81917F01882309F45B
:100B3000BAC1853239F493FD859193FF81917F018C
:100B4000853229F4B60190E00E947307E7CF912C1B
:100B5000212C312CFFE1F315D8F08B3279F038F4E9
:100B6000803279F08332A1F4232D20611DC08D32B3
:100B700061F0803369F4232D216016C0832D8260DB
:100B8000382EE32DE4603E2E2AC0F32DF8601DC000
:100B900037FC2DC020ED280F2A3040F08E32B9F4FA
:100BA00036FC81C1232D2064322E19C036FE06C0CA
:100BB0008AE0989E200D1124922E11C0EAE02E9E0C
:100BC000200D1124222EF32DF0623F2E08C08C360A
:100BD00021F4832D8068382E02C0883641F4F70155
:100BE00093FD859193FF81917F018111B3CF982F60
:100BF0009F7D9554933028F40C5F1F4F9FE399839A
:100C00000DC0833631F0833771F0833509F059C058
:100C100021C0F801808189830E5F1F4F882483944F
:100C2000912C530113C02801F2E04F0E511CF80122
:100C3000A080B18036FE03C0692D70E002C06FEF66
:100C40007FEFC5010E9468074C018201F32DFF77F9
:100C50003F2E16C0280122E0420E511CF801A08050
:100C6000B18036FE03C0692D70E002C06FEF7FEFE8
:100C7000C5010E945D074C01F32DF0683F2E8201F3
:100C800033FC1BC0822D90E088169906B0F4B601A3
:100C900080E290E00E9473072A94F4CFF50137FCBC
:100CA000859137FE81915F01B60190E00E94730744
:100CB00021102A9421E0821A91088114910471F77D
:100CC000E8C0843611F0893641F5F80137FE07C0D7
:100CD00060817181828193810C5F1F4F08C06081A8
:100CE0007181072E000C880B990B0E5F1F4FF32D9F
:100CF000FF763F2E97FF09C090958095709561957E
:100D00007F4F8F4F9F4FF0683F2E2AE030E0A301C6
:100D10000E94AF07882E861845C0853731F4232DF1
:100D20002F7EB22E2AE030E025C0932D997FB92E78
:100D30008F36C1F018F4883579F0B5C0803719F0D6
:100D4000883721F0B0C0E92FE061BE2EB4FE0DC09F
:100D5000FB2DF460BF2E09C034FE0AC0292F266087
:100D6000B22E06C028E030E005C020E130E002C02D
:100D700020E132E0F801B7FE07C060817181828115
:100D800093810C5F1F4F06C06081718180E090E00D
:100D90000E5F1F4FA3010E94AF07882E8618FB2D00
:100DA000FF773F2E36FE0DC0232D2E7FA22E8914F5
:100DB00058F434FE0BC032FC09C0832D8E7EA82E61
:100DC00005C0B82CA32C03C0B82C01C0B92CA4FEBC
:100DD0000FC0FE01E80DF11D8081803321F49A2DB2
:100DE000997EA92E09C0A2FE06C0B394B39404C094
:100DF0008A2D867809F0B394A3FC11C0A0FE06C02A
:100E0000B21488F4280C922C9B180EC0B21460F413
:100E1000B60180E290E00E947307B394F7CFB2145A
:100E200018F42B1802C0982C212CA4FE10C0B60177
:100E300080E390E00E947307A2FE17C0A1FC03C0EC
:100E400088E790E002C088E590E0B6010CC08A2DEA
:100E5000867859F0A1FE02C08BE201C080E2A7FCB7
:100E60008DE2B60190E00E947307891438F4B60150
:100E700080E390E00E9473079A94F7CF8A94F3017D
:100E8000E80DF11D8081B60190E00E94730781108A
:100E9000F5CF222009F442CEB60180E290E00E9414
:100EA00073072A94F6CFF6018681978102C08FEFEF
:100EB0009FEF2B96E2E10C945208FC0105906150E3
:100EC00070400110D8F7809590958E0F9F1F089560
:100ED000FC016150704001900110D8F78095909509
:100EE0008E0F9F1F08950F931F93CF93DF93FB01E6
:100EF000238121FD03C08FEF9FEF2CC022FF16C07E
:100F000046815781248135814217530744F4A081DB
:100F1000B1819D012F5F3F4F318320838C932681C8
:100F200037812F5F3F4F3783268314C08B01EC013D
:100F3000FB010084F185E02D0995892BE1F6D801AC
:100F400016968D919C911797019617969C938E9368
:100F50001697CE01DF91CF911F910F910895FA015D
:100F6000AA27283051F1203181F1E8946F936E7FE8
:100F70006E5F7F4F8F4F9F4FAF4FB1E03ED0B4E0D9
:100F80003CD0670F781F891F9A1FA11D680F791F1A
:100F90008A1F911DA11D6A0F711D811D911DA11D2B
:100FA00020D009F468943F912AE0269F112430193B
:100FB000305D3193DEF6CF010895462F4770405DD6
:100FC0004193B3E00FD0C9F7F6CF462F4F70405D85
:100FD0004A3318F0495D31FD4052419302D0A9F7E0
:100FE000EACFB4E0A6959795879577956795BA95DA
:100FF000C9F700976105710508959B01AC010A2EA0
:1010000006945795479537952795BA95C9F7620F76
:10101000731F841F951FA01D0895A8E1B0E042E052
:1010200050E00C941A080E942808272F0C942908D5
:10103000DC01CB01FC01F999FECF06C0F2BDE1BD98
:10104000F89A319600B40D9241505040B8F7089587
:10105000262FF999FECF1FBA92BD81BD20BD0FB6D4
:10106000F894FA9AF99A0FBE019608952F923F923A
:101070004F925F926F927F928F929F92AF92BF92A8
:10108000CF92DF92EF92FF920F931F93CF93DF9354
:10109000CDB7DEB7CA1BDB0B0FB6F894DEBF0FBEB1
:1010A000CDBF09942A88398848885F846E847D84FE
:1010B0008C849B84AA84B984C884DF80EE80FD8000
:1010C0000C811B81AA81B981CE0FD11D0FB6F89476
:0E10D000DEBF0FBECDBFED010895F894FFCF37
:1010DE00320201004D6F692065656D0D0A426F6F1A
:1010EE0074206E756D6D65723A200025732575003E
:1010FE0021636F6E6E65637469652D636865636BDE
:10110E000040636F6E6E65637469652D6368656319
:10111E006B3D73756363657300216175746F6E6FDC
:10112E006F6D00406175746F6E6F6F6D3D30004076
:10113E006175746F6E6F6F6D3D310021626F7665F4
:10114E006E6772656E7374656D70657261747575B8
:10115E00720040626F76656E6772656E7374656D50
:10116E0070657261747575723D256400216F6E64D1
:10117E0065726772656E7374656D70657261747594
:10118E00757200406F6E6465726772656E7374651A
:10119E006D70657261747575723D2564002173639F
:1011AE006865726D756974726F6C00407363686503
:1011BE00726D756974726F6C3D256400216F6E647B
:1011CE0065726772656E73756974726F6C00406FCD
:1011DE006E6465726772656E73756974726F6C3D5D
:1011EE0025640021626F76656E6772656E73756930
:1011FE0074726F6C0040626F76656E6772656E73A7
:10120E00756974726F6C3D256400216F6E64657232
:10121E006772656E736C69636874696E74656E73FC
:10122E00697465697400406F6E6465726772656E8D
:10123E00736C69636874696E74656E7369746569DD
:10124E00743D25640021626F76656E6772656E73FC
:10125E006C69636874696E74656E736974656974BC
:10126E000040626F76656E6772656E736C69636857
:10127E0074696E74656E7369746569743D25640076
:10128E002161667374616E64002361667374616EAE
:10129E00643D002573256400216C69636874004009
:1012AE006C696368743D00216175746F6E6F6F6D4C
:1012BE003D3000406175746F6E6F6F6D3D73756379
:1012CE0063657300216175746F6E6F6F6D3D3100D4
:1012DE0021626F76656E6772656E7374656D70658B
:1012EE007261747575723D0040626F76656E6772DD
:1012FE00656E7374656D70657261747575723D732C
:10130E00756363657300216F6E6465726772656ED7
:10131E007374656D70657261747575723D00406FA2
:10132E006E6465726772656E7374656D70657261F9
:10133E00747575723D7375636365730021736368AD
:10134E0065726D756974726F6C3D0040736368658C
:10135E00726D756974726F6C3D737563636573003E
:10136E00406F6E67656C6469670040666F757400E8
:08137E002374656D703D000051
:00000001FF
