:100000000C9434000C94EE000C9451000C945100AC
:100010000C9451000C9451000C9451000C9451001C
:100020000C9451000C9451000C9451000C94C3009A
:100030000C9451000C942F010C9451000C9451001D
:100040000C9451000C9451000C9451000C945100EC
:100050000C9451000C9451000C9451000C945100DC
:100060000C9451000C94510011241FBECFEFD8E026
:10007000DEBFCDBF13E0A0E0B1E0E6E9F0E102C0F1
:1000800005900D92A636B107D9F723E0A6E6B3E0B6
:1000900001C01D92AA3CB207E1F70E9476040C94BD
:1000A00049080C9400000F931F93CF93DF93DC015A
:1000B000E5E7F3E020E030E0822FE90100811181E3
:1000C0002F5F3F4F3796012BB9F797E09C9FF001C8
:1000D0009D9FF00D1124EB58FC4FB183A0837383D7
:1000E0006283558344831682DF91CF911F910F91D4
:1000F000089527E0829FC0011124FC01EB58FC4FBA
:10010000118210821382128215821482168280E07C
:1001100008951F93CF93DF93C5E7D3E010E08E815E
:10012000882379F0E881F981309759F009958E811B
:1001300081508E838C819D81892B19F4812F0E949F
:1001400079001F5F2796153051F7DF91CF911F91EE
:100150000895CF93C0E08C2F0E947900CF5FC53007
:10016000D1F78FE79EE3909389008093880089E020
:100170008093810080916F00826080936F00CF91A7
:100180000895789408951F920F920FB60F9211243C
:100190008F939F93EF93FF93E5E7F3E08081918145
:1001A000892B71F082819381009739F486818F5F6A
:1001B000868384819581009719F0019793838283C8
:1001C000379683E0E839F80749F7FF91EF919F915F
:1001D0008F910F900FBE0F901F9018951F920F9246
:1001E0000FB60F9211242F933F938F939F9390916B
:1001F00074039130A1F480917203811110C04A9B65
:100200000EC08091810082608093810010928500F1
:1002100010928400909372031092740317C090910F
:100220007203913099F44A9911C0809181008D7FB9
:100230008093810020918400309185003093710378
:100240002093700310927203909373039F918F9188
:100250003F912F910F900FBE0F901F9018951F92F6
:100260000F920FB60F9211248F939F93EF93FF93EA
:10027000E1E8F0E080818D7F80838091840090911F
:100280008500909371038093700381E080937303E2
:1002900010927203FF91EF919F918F910F900FBE7B
:1002A0000F901F9018951092C50087E68093C400A8
:1002B0001092C00088E18093C10086E08093C20064
:1002C000089530910001A8E9B3E080E090E0831741
:1002D00080F42091C00027FFFCCFFC012091C600D4
:1002E0002D9301962D3099F7E856FC4F108280E04F
:1002F000089581E0089560E0262F30E0FC01019030
:100300000020E9F7AF01481B590B24173507C8F443
:100310004091C00045FFFCCFFC01E20FF31F20819C
:1003200021110BC08DE08093C6008091C00085FF35
:10033000FCCF8AE08093C60008952093C6006F5FCB
:10034000DBCF08958091C00080780895EF92FF92EE
:100350000F931F93CF93DF93CDB7DEB7E2970FB61E
:10036000F894DEBF0FBECDBF80E090E00E94E907A9
:1003700089369A4749F069E67AE780E090E00E9482
:10038000EF0700E010E007C082E090E00E94E9077C
:100390008C010F5F1F4F1F930F9384E091E09F9399
:1003A0008F938BE191E09F938F931F9282E38F93C2
:1003B000CE0101967C019F938F930E940605C70191
:1003C0000E947B01B80182E090E00E94EF070FB627
:1003D000F894DEBF0FBECDBFE2960FB6F894DEBF35
:1003E0000FBECDBFDF91CF911F910F91FF90EF9086
:1003F0000895CF93DF9300D000D0CDB7DEB79091B2
:100400000001E8E9F3E080E0891711F121912D3333
:10041000E9F4DE01119690E0AD01282F30E0285676
:100420003C4FF9012081222361F0933051F08F5F1E
:10043000282F30E028563C4FF90120812D939F5FF3
:10044000ECCFFA01E90FF11D108202C08F5FDCCF03
:10045000CE0101960E94C9040F900F900F900F904B
:10046000DF91CF910895239AEFE6F0E080818160DB
:100470008083109285001092840081E0809369004F
:100480008DBB089581E0809374032B9A85E38A9550
:10049000F1F700002B98809173038823E1F380919A
:1004A00070039091710308950F931F93CF93DF937F
:1004B000CDB7DEB7E2970FB6F894DEBF0FBECDBF63
:1004C00060E271E088E993E00E94E704892B19F467
:1004D00081E391E006C169E471E088E993E00E945C
:1004E000E704892B51F480916E03811103C083E5E9
:1004F00091E0F7C08FE591E0F4C06BE671E088E928
:1005000093E00E94E704892B59F480916C03282F13
:10051000082E000C330B3F938F9382E891E05DC06F
:100520006CE971E088E993E00E94E704892B59F4B3
:1005300080916D03282F082E000C330B3F938F936F
:1005400083EB91E04AC06DEC71E088E993E00E9492
:10055000E704892B39F4809167031F928F938BED09
:1005600091E03BC06CEE71E088E993E00E94E70403
:10057000892B39F4809169031F928F938EEF91E05C
:100580002CC063E172E088E993E00E94E704892BC4
:1005900039F4809168031F928F9385E292E01DC029
:1005A0006AE372E088E993E00E94E704892B39F45A
:1005B00080916A031F928F9386E592E00EC065E7F3
:1005C00072E088E993E00E94E704892BC9F48091E6
:1005D0006B031F928F9381E992E09F938F938E011B
:1005E0000F5F1F4F1F930F930E943605C8010E9493
:1005F0007B010F900F900F900F900F900F9073C092
:1006000060EB72E088E993E00E94E704892BF9F43B
:100610000E9442029F938F9389EB92E09F938F9366
:1006200083EC92E09F938F931F9282E38F938E01CE
:100630000F5F1F4F1F930F930E940605C8010E9472
:100640007B010FB6F894DEBF0FBECDBF4CC068EC87
:1006500072E088E993E00E94E704892B19F4109274
:100660006E030BC065EE72E088E993E00E94E70438
:10067000892B31F481E080936E0384ED92E031C0E8
:1006800047E150E061EF72E088E993E00E94F004F6
:10069000892B29F40E94F90180936C031DC047E166
:1006A00050E067E273E088E993E00E94F004892B50
:1006B00029F40E94F90180936D030EC04EE050E0D2
:1006C0006FE373E088E993E00E94F004892B39F42A
:1006D0000E94F9018093660389E093E002C08EE4F2
:1006E00093E00E947B01E2960FB6F894DEBF0FBE46
:1006F000CDBFDF91CF911F910F9108958091C000E0
:1007000087FF0AC00E946101811102C00C9454024B
:1007100088E593E00C947B01089580E680937C004B
:1007200080917A00806480937A0080917A0086FDBF
:10073000FCCF8091790024E0829FC0011124845F66
:1007400091406AE070E00E94B504CB0108950F93D8
:100750001F93CF93DF93CDB7DEB7E2970FB6F89430
:10076000DEBF0FBECDBF0E948D039F938F938EE59A
:1007700093E09F938F9383EC92E09F938F931F92CC
:1007800082E38F938E010F5F1F4F1F930F930E9481
:100790000605C8010E947B010FB6F894DEBF0FBEAC
:1007A000CDBFE2960FB6F894DEBF0FBECDBFDF918E
:1007B000CF911F910F91089580916E038130C1F404
:1007C0000E948D0320916D03022E000C330B28171D
:1007D000390764F420916C03022E000C330B82174E
:1007E000930724F484E680936603089510926603C9
:1007F000089581E680937C0080917A0080648093E4
:100800007A0080917A0086FDFCCF8091790008956E
:1008100045B121E030E061110AC0B90102C0660FA4
:10082000771F8A95E2F7CB018095842308C0B90130
:1008300002C0660F771F8A95E2F7CB01842B85B93A
:100840000895CF93DF93D82FC8E029986D2F61705A
:1008500080E00E940804D695299AC150B1F7DF9133
:10086000CF9108952A980E9421042A9A089584B16C
:10087000876084B989E80C943204CF9380E40E94A5
:1008800032042A9880EC0E942104C0E180E00E949A
:100890002104C150D9F72A9ACF910895CF93C0E08F
:1008A00084E40E9432042A988C2F880F8F530E9470
:1008B000210481E00E9421042A9ACF5FC83081F789
:1008C000CF9108959091660380916703891710F482
:1008D000845F03C0981718F48C508093670380914D
:1008E00067036CE00E94A9040C944E040E9453011B
:1008F0000E94A90087E880937A000E9437040E9432
:100900003D040E9433020E94A60141E050E068EEDF
:1009100073E08EE793E00E94530040ED57E068EEED
:1009200073E087EA93E00E94530040ED57E068EEE1
:1009300073E082E694E00E94530040ED57E060E1EE
:1009400077E28CED93E00E94530078940E94890036
:10095000FDCF991B79E004C0991F961708F0961BEC
:10096000881F7A95C9F780950895AA1BBB1B51E192
:1009700007C0AA1FBB1FA617B70710F0A61BB70B0F
:10098000881F991F5A95A9F780959095BC01CD01B4
:100990000895FC0188279927E89421912032E9F3F2
:1009A000293010F02E30C8F32B3241F02D3239F4BB
:1009B000689404C00E94FE04820F911D219120536F
:1009C0002A30C0F31EF4909581959F4F0895FB0146
:1009D000DC018D91019080190110D9F3990B0895D4
:1009E000FB01DC014150504030F08D9101908019A5
:1009F00019F40020B9F7881B990B08957AE0979FA6
:100A0000902D879F802D910D11240895AEE0B0E0C8
:100A1000ECE0F5E00C9420080D891E898F89988DF3
:100A200026E02C831A83098397FF02C080E090E8B8
:100A300001979E838D83AE01455E5F4F698D7A8DF0
:100A4000CE0101960E9458054D815E8157FD0AC076
:100A50002F813885421753070CF49A01F801E20FF1
:100A6000F31F10822E96E4E00C943C08AEE0B0E058
:100A7000ECE3F5E00C9420080D891E8986E08C8358
:100A80001A8309838FEF9FE79E838D83AE01475EB4
:100A90005F4F6F89788DCE0101960E945805EF81D6
:100AA000F885E00FF11F10822E96E4E00C943C08CC
:100AB000ABE0B0E0EEE5F5E00C9412086C017B01D0
:100AC0008A01FC0117821682838181FFCCC1CE018D
:100AD00001963C01F6019381F70193FD859193FF07
:100AE00081917F01882309F4BAC1853239F493FDDD
:100AF000859193FF81917F01853229F4B60190E0C1
:100B00000E944F07E7CF912C212C312CFFE1F315E8
:100B1000D8F08B3279F038F4803279F08332A1F456
:100B2000232D20611DC08D3261F0803369F4232DA7
:100B3000216016C0832D8260382EE32DE4603E2EA6
:100B40002AC0F32DF8601DC037FC2DC020ED280F02
:100B50002A3040F08E32B9F436FC81C1232D206456
:100B6000322E19C036FE06C08AE0989E200D112450
:100B7000922E11C0EAE02E9E200D1124222EF32D7C
:100B8000F0623F2E08C08C3621F4832D8068382E09
:100B900002C0883641F4F70193FD859193FF81915E
:100BA0007F018111B3CF982F9F7D9554933028F406
:100BB0000C5F1F4F9FE399830DC0833631F083375D
:100BC00071F0833509F059C021C0F8018081898313
:100BD0000E5F1F4F88248394912C530113C028016A
:100BE000F2E04F0E511CF801A080B18036FE03C028
:100BF000692D70E002C06FEF7FEFC5010E944407CE
:100C00004C018201F32DFF773F2E16C0280122E010
:100C1000420E511CF801A080B18036FE03C0692D40
:100C200070E002C06FEF7FEFC5010E9439074C01F1
:100C3000F32DF0683F2E820133FC1BC0822D90E023
:100C400088169906B0F4B60180E290E00E944F0742
:100C50002A94F4CFF50137FC859137FE81915F012D
:100C6000B60190E00E944F0721102A9421E0821AD9
:100C700091088114910471F7E8C0843611F0893627
:100C800041F5F80137FE07C060817181828193814F
:100C90000C5F1F4F08C060817181072E000C880B0C
:100CA000990B0E5F1F4FF32DFF763F2E97FF09C064
:100CB00090958095709561957F4F8F4F9F4FF0680D
:100CC0003F2E2AE030E0A3010E948B07882E861871
:100CD00045C0853731F4232D2F7EB22E2AE030E037
:100CE00025C0932D997FB92E8F36C1F018F4883521
:100CF00079F0B5C0803719F0883721F0B0C0E92FFE
:100D0000E061BE2EB4FE0DC0FB2DF460BF2E09C005
:100D100034FE0AC0292F2660B22E06C028E030E03B
:100D200005C020E130E002C020E132E0F801B7FE6A
:100D300007C060817181828193810C5F1F4F06C063
:100D40006081718180E090E00E5F1F4FA3010E94DF
:100D50008B07882E8618FB2DFF773F2E36FE0DC0A1
:100D6000232D2E7FA22E891458F434FE0BC032FCA2
:100D700009C0832D8E7EA82E05C0B82CA32C03C0DD
:100D8000B82C01C0B92CA4FE0FC0FE01E80DF11D66
:100D90008081803321F49A2D997EA92E09C0A2FE6C
:100DA00006C0B394B39404C08A2D867809F0B39436
:100DB000A3FC11C0A0FE06C0B21488F4280C922C2B
:100DC0009B180EC0B21460F4B60180E290E00E945D
:100DD0004F07B394F7CFB21418F42B1802C0982C15
:100DE000212CA4FE10C0B60180E390E00E944F07C2
:100DF000A2FE17C0A1FC03C088E790E002C088E50E
:100E000090E0B6010CC08A2D867859F0A1FE02C090
:100E10008BE201C080E2A7FC8DE2B60190E00E9467
:100E20004F07891438F4B60180E390E00E944F0721
:100E30009A94F7CF8A94F301E80DF11D8081B601F1
:100E400090E00E944F078110F5CF222009F442CE96
:100E5000B60180E290E00E944F072A94F6CFF60197
:100E60008681978102C08FEF9FEF2B96E2E10C9471
:100E70002E08FC010590615070400110D8F7809554
:100E800090958E0F9F1F0895FC0161507040019056
:100E90000110D8F7809590958E0F9F1F08950F939E
:100EA0001F93CF93DF93FB01238121FD03C08FEFBD
:100EB0009FEF2CC022FF16C04681578124813581C7
:100EC0004217530744F4A081B1819D012F5F3F4F2A
:100ED000318320838C93268137812F5F3F4F378367
:100EE000268314C08B01EC01FB010084F185E02D09
:100EF0000995892BE1F6D80116968D919C9117974B
:100F0000019617969C938E931697CE01DF91CF9101
:100F10001F910F910895FA01AA27283051F120312D
:100F200081F1E8946F936E7F6E5F7F4F8F4F9F4F7D
:100F3000AF4FB1E03ED0B4E03CD0670F781F891FBF
:100F40009A1FA11D680F791F8A1F911DA11D6A0F8D
:100F5000711D811D911DA11D20D009F468943F9140
:100F60002AE0269F11243019305D3193DEF6CF013F
:100F70000895462F4770405D4193B3E00FD0C9F705
:100F8000F6CF462F4F70405D4A3318F0495D31FD72
:100F90004052419302D0A9F7EACFB4E0A6959795C5
:100FA000879577956795BA95C9F70097610571059B
:100FB00008959B01AC010A2E0694579547953795E5
:100FC0002795BA95C9F7620F731F841F951FA01D3F
:100FD0000895A8E1B0E042E050E00C94F6070E94CA
:100FE0000408272F0C940508DC01CB01FC01F999BA
:100FF000FECF06C0F2BDE1BDF89A319600B40D9265
:1010000041505040B8F70895262FF999FECF1FBAE6
:1010100092BD81BD20BD0FB6F894FA9AF99A0FBE21
:10102000019608952F923F924F925F926F927F9216
:101030008F929F92AF92BF92CF92DF92EF92FF92E8
:101040000F931F93CF93DF93CDB7DEB7CA1BDB0B94
:101050000FB6F894DEBF0FBECDBF09942A88398839
:1010600048885F846E847D848C849B84AA84B98440
:10107000C884DF80EE80FD800C811B81AA81B9814C
:10108000CE0FD11D0FB6F894DEBF0FBECDBFED0160
:061090000895F894FFCF63
:10109600320201004D6F692065656D0D0A426F6F62
:1010A60074206E756D6D65723A2000257325750086
:1010B60021636F6E6E65637469652D636865636B26
:1010C6000040636F6E6E65637469652D6368656362
:1010D6006B3D73756363657300216175746F6E6F25
:1010E6006F6D00406175746F6E6F6F6D3D300040BF
:1010F6006175746F6E6F6F6D3D310021626F76653D
:101106006E6772656E7374656D7065726174757500
:10111600720040626F76656E6772656E7374656D98
:1011260070657261747575723D256400216F6E6419
:1011360065726772656E7374656D706572617475DC
:10114600757200406F6E6465726772656E73746562
:101156006D70657261747575723D256400217363E7
:101166006865726D756974726F6C0040736368654B
:10117600726D756974726F6C3D256400216F6E64C3
:1011860065726772656E73756974726F6C00406F15
:101196006E6465726772656E73756974726F6C3DA5
:1011A60025640021626F76656E6772656E73756978
:1011B60074726F6C0040626F76656E6772656E73EF
:1011C600756974726F6C3D256400216F6E6465727B
:1011D6006772656E736C69636874696E74656E7345
:1011E600697465697400406F6E6465726772656ED6
:1011F600736C69636874696E74656E736974656926
:10120600743D25640021626F76656E6772656E7344
:101216006C69636874696E74656E73697465697404
:101226000040626F76656E6772656E736C6963689F
:1012360074696E74656E7369746569743D256400BE
:101246002161667374616E64002361667374616EF6
:10125600643D002573256400216175746F6E6F6FA0
:101266006D3D3000406175746F6E6F6F6D3D7375C7
:101276006363657300216175746F6E6F6F6D3D31C9
:101286000021626F76656E6772656E7374656D7048
:10129600657261747575723D0040626F76656E6742
:1012A60072656E7374656D70657261747575723D85
:1012B60073756363657300216F6E6465726772652B
:1012C6006E7374656D70657261747575723D00211B
:1012D60073636865726D756974726F6C3D00406FFB
:1012E6006E67656C6469670040666F757400237489
:0612F600656D703D000073
:00000001FF
