:100000000C9434000C94EE000C9451000C945100AC
:100010000C9451000C9451000C9451000C9451001C
:100020000C9451000C9451000C9451000C94C3009A
:100030000C9451000C942F010C9451000C9451001D
:100040000C9451000C9451000C9451000C945100EC
:100050000C9451000C9451000C9451000C945100DC
:100060000C9451000C94510011241FBECFEFD8E026
:10007000DEBFCDBF14E0A0E0B1E0E0E8F7E102C0F0
:1000800005900D92AC35B107D9F724E0ACE5B4E0AA
:1000900001C01D92A93EB207E1F70E9482060C94AE
:1000A000BE0B0C9400000F931F93CF93DF93DC01E2
:1000B000EDE6F4E020E030E0822FE90100811181DB
:1000C0002F5F3F4F3796012BB9F797E09C9FF001C8
:1000D0009D9FF00D1124E359FB4FB183A0837383DF
:1000E0006283558344831682DF91CF911F910F91D4
:1000F000089527E0829FC0011124FC01E359FB4FC2
:10010000118210821382128215821482168280E07C
:1001100008951F93CF93DF93CDE6D4E010E08E8156
:10012000882379F0E881F981309759F009958E811B
:1001300081508E838C819D81892B19F4812F0E949F
:1001400079001F5F27961A3051F7DF91CF911F91E9
:100150000895CF93C0E08C2F0E947900CF5FCA3002
:10016000D1F78FE79EE3909389008093880089E020
:100170008093810080916F00826080936F00CF91A7
:100180000895789408951F920F920FB60F9211243C
:100190008F939F93EF93FF93EDE6F4E0808191813D
:1001A000892B71F082819381009739F486818F5F6A
:1001B000868384819581009719F0019793838283C8
:1001C000379684E0E33BF80749F7FF91EF919F9161
:1001D0008F910F900FBE0F901F9018951F920F9246
:1001E0000FB60F9211242F933F938F939F9390916B
:1001F0006B049130A1F480916904811110C04A9B75
:100200000EC08091810082608093810010928500F1
:10021000109284009093690410926B0417C090911F
:100220006904913099F44A9911C0809181008D7FC1
:100230008093810020918400309185003093680480
:10024000209367041092690490936A049F918F91A0
:100250003F912F910F900FBE0F901F9018951F92F6
:100260000F920FB60F9211248F93EF93FF93E1E853
:10027000F0E080818D7F808381E080936A0410921A
:100280006904FF91EF918F910F900FBE0F901F9017
:1002900018951092C50087E68093C4001092C000A4
:1002A00088E18093C10086E08093C2000895309178
:1002B0000101A3EBB4E080E090E0831780F420918B
:1002C000C00027FFFCCFFC012091C6002D930196B2
:1002D0002D3099F7ED54FB4F108280E0089581E0B6
:1002E000089560E0262F30E0FC0101900020E9F73E
:1002F000AF01481B590B24173507C8F44091C000C3
:1003000045FFFCCFFC01E20FF31F208121110BC040
:100310008DE08093C6008091C00085FFFCCF8AE00D
:100320008093C60008952093C6006F5FDBCF0895C9
:1003300020E0EAE0F0E0009731F02F5FBF010E947B
:10034000D106CB01F8CF211101C021E0822F089501
:10035000EF92FF921F93CF93DF93D82F192F0E9414
:100360009801C82F90E00E9416079C01EAE0F0E097
:10037000C15068F07901EC0EF11C8D2F912FBF0157
:100380000E94D106D7018C93D62F172FF1CFC90128
:10039000DF91CF911F91FF90EF9008958091C00061
:1003A00080780895EF92FF920F931F93CF93DF937E
:1003B000CDB7DEB7E2970FB6F894DEBF0FBECDBF64
:1003C00080E090E00E945E0B89369A4749F069E62A
:1003D0007AE780E090E00E94640B00E010E007C044
:1003E00082E090E00E945E0B8C010F5F1F4F1F9315
:1003F0000F9386E191E09F938F938DE291E09F931D
:100400008F931F9282E38F93CE0101967C019F937D
:100410008F930E947B08C7010E947101B80182E09E
:1004200090E00E94640B0FB6F894DEBF0FBECDBF04
:10043000E2960FB6F894DEBF0FBECDBFDF91CF912D
:100440001F910F91FF90EF900895CF93DF93CDB759
:10045000DEB72A970FB6F894DEBF0FBECDBF9091DE
:100460000101E3EBF4E080E0891711F121912D33D4
:10047000E9F4DE01119690E0AD01282F30E02D5413
:100480003B4FF9012081222361F0993051F08F5FB9
:10049000282F30E02D543B4FF90120812D939F5F91
:1004A000ECCFFA01E90FF11D108202C08F5FDCCFA3
:1004B000CE0101960E9437082A960FB6F894DEBF47
:1004C0000FBECDBFDF91CF910895239AEFE6F0E004
:1004D000808181608083109285001092840081E089
:1004E000809369008DBB089581E080936B042B9A03
:1004F00085E38A95F1F700002B9880916A048823A0
:10050000E1F380916704909168046FE070E00E94CD
:10051000D106CB01089581E680937C0080917A001A
:10052000806480937A0080917A0086FDFCCF2091D0
:10053000790030E0A4E6B0E00E9407072FEF30E03A
:1005400040E050E00E94E506822F08950F931F932C
:10055000CF93DF93CDB7DEB7E2970FB6F894DEBF47
:100560000FBECDBF0E948B021F928F9382E391E05A
:100570009F938F938DE291E09F938F931F9282E3DD
:100580008F938E010F5F1F4F1F930F930E947B0865
:10059000C8010E9471010FB6F894DEBF0FBECDBF37
:1005A000E2960FB6F894DEBF0FBECDBFDF91CF91BC
:1005B0001F910F91089580E480937C0080917A00D0
:1005C000806480937A0080917A0086FDFCCF209130
:1005D000780030917900A8E8B3E10E940707DC01B8
:1005E000CB012AE0B695A795979587952A95D1F7DF
:1005F000845F914008950F931F93CF93DF93CDB7FE
:10060000DEB7E2970FB6F894DEBF0FBECDBF0E94F3
:10061000DB029F938F938AE391E09F938F9381E412
:1006200091E09F938F931F9282E38F938E010F5FD0
:100630001F4F1F930F930E947B08C8010E947101F6
:100640000FB6F894DEBF0FBECDBFE2960FB6F8949A
:10065000DEBF0FBECDBFDF91CF911F910F910895E7
:10066000CF93DF9380916504813009F50E94DB020E
:10067000EC010E948B0220916304309164042C17DA
:100680003D075CF42091610430916204C217D307E6
:1006900024F484E680935C040AC090915F04981768
:1006A00020F4909160048917A0F310925C04DF910C
:1006B000CF9108950F931F93CF93DF93CDB7DEB7FC
:1006C000E2970FB6F894DEBF0FBECDBF66E471E0CF
:1006D00083EB94E00E9455088E010F5F1F4F892B1A
:1006E00019F467E571E044C16FE671E083EB94E0D3
:1006F0000E945508892B51F480916504811103C033
:1007000069E771E035C165E871E032C161E971E026
:1007100083EB94E00E945508892B49F48091620490
:100720008F93809161048F9388EA91E05BC062ECC3
:1007300071E083EB94E00E945508892B49F4809185
:1007400064048F93809163048F9389ED91E04AC094
:1007500063EF71E083EB94E00E945508892B39F434
:1007600080915D041F928F9381E092E03BC062E133
:1007700072E083EB94E00E945508892B39F4809154
:1007800000011F928F9384E292E02CC069E372E033
:1007900083EB94E00E945508892B39F480915E0424
:1007A0001F928F938BE492E01DC060E672E083EBB2
:1007B00094E00E945508892B39F480915F041F92C0
:1007C0008F938CE792E00EC06BE972E083EB94E0CC
:1007D0000E945508892B99F4809160041F928F9391
:1007E00087EB92E09F938F931F930F930E94AB0828
:1007F0000F900F900F900F900F900F90BCC066ED70
:1008000072E083EB94E00E945508892B39F40E9432
:1008100074029F938F938FED92E021C069EE72E096
:1008200083EB94E00E945508892B59F40E948B02B7
:100830001F928F9380EF92E09F938F938DE291E0D0
:1008400012C068EF72E083EB94E00E945508892B98
:10085000C9F40E94DB029F938F9385E093E09F93FE
:100860008F9381E491E09F938F931F9282E38F9304
:100870001F930F930E947B080FB6F894DEBF0FBE44
:10088000CDBF79C063E173E083EB94E00E9455082B
:10089000892B19F4109265040BC060E373E083EBBD
:1008A00094E00E945508892B31F481E0809365041F
:1008B0006FE173E05DC047E150E06CE373E083EB10
:1008C00094E00E946508892B49F40E9425029093C8
:1008D00062048093610464E573E04AC047E150E03C
:1008E00062E773E083EB94E00E946508892B49F48A
:1008F0000E94250290936404809363046AE873E085
:1009000037C04CE150E068EA73E083EB94E00E946A
:100910006508892B39F40E9425028093600465ECF8
:1009200073E026C04CE150E068EE73E083EB94E0A6
:100930000E946508892B39F40E94250280935F0488
:1009400065E074E015C04EE050E067E274E083EBD0
:1009500094E00E946508892B49F40E94250285369F
:1009600028F480935C0466E374E002C06BE474E0F6
:10097000C8010E945E08C8010E947101E2960FB68C
:10098000F894DEBF0FBECDBFDF91CF911F910F91C5
:1009900008958091C00087FF0AC00E94570181110D
:1009A00002C00C945A0385E594E00C9471010895FB
:1009B00045B121E030E061110AC0B90102C0660F03
:1009C000771F8A95E2F7CB018095842308C0B9018F
:1009D00002C0660F771F8A95E2F7CB01842B85B999
:1009E0000895CF93DF93D82FC8E029986D2F6170B9
:1009F00080E00E94D804D695299AC150B1F7DF91C2
:100A0000CF9108952A980E94F1042A9A089584B1FA
:100A1000876084B989E80C940205CF9380E40E9432
:100A200002052A9880EC0E94F104C0E180E00E9457
:100A3000F104C150D9F72A9ACF9108951F93CF930B
:100A4000DF93182FD1E0C0E0C11301C0D0E084E4EF
:100A50000E9402052A988C2F880F8F530E94F10460
:100A60008D2F0E94F1042A9ACF5FC83069F7DF9179
:100A7000CF911F91089590915C0480915D04891736
:100A800020F4843610F48F5F05C0981750F4882343
:100A900041F0815080935D046CE00E94C5060C9487
:100AA0001E0508959F92AF92BF92CF92DF92EF9270
:100AB000FF920F931F93CF93DF936C0177FF0FC0CB
:100AC000CC27DD27C61BD70BCE010E94980196E0EC
:100AD000981BF601E90FF11D90E4908304C0EB012F
:100AE000CB010E94980197E0F92EF81ACE010E94DE
:100AF000A8015C019F2CE92CEF18CE010E949801FF
:100B0000092D10E0E816B0F4F601E00FF11F2E2DCC
:100B100030E0D501A20FB31FAC91B0E0A85FBE4F8B
:100B20004C9190E0821B930B029709F4406840833C
:100B30009394E1CFC5010E94AE07F601E00FF11FCB
:100B4000808188658083DF91CF911F910F91FF9005
:100B5000EF90DF90CF90BF90AF909F900895CF928D
:100B6000DF92FF920F931F93CF93DF93CDB7DEB742
:100B700028970FB6F894DEBF0FBECDBF88E0F82EE1
:100B80008E010F5F1F4FF8012F2D11922A95E9F763
:100B900080916C04811111C00E94DB0228E7298337
:100BA00023E72A83BC01C8010E94520580916C048E
:100BB0008F5F80936C04F12C84C0813019F50E9402
:100BC0008B029AE3998399E39A8396E79B8398E74C
:100BD0009C83C82ED12CC6010E949801F81AC60128
:100BE0000E94A801DC01F8E0FF1681F1ED91980167
:100BF0002F0D311DF0E0E85FFE4F4081F901408389
:100C0000F394F1CF823029F50E9474026C0187E7DA
:100C1000898381E78A838DE68B8388E78C83C6018D
:100C20000E949801F81AC6010E94A801DC01F8E0B0
:100C3000FF1661F0ED9198012F0D311DF0E0E85F96
:100C4000FE4F4081F9014083F394F1CF0E94AE073B
:100C5000ADCF8330B9F487E789832EE32A8398E701
:100C60009B833FE33C8330916504311105C02E83A3
:100C700080E38F83988704C08E838F8384E5888781
:100C800084E097CF843059F488E7898383E78A83A7
:100C900081E08B83609161047091620484CF853020
:100CA00009F089CF88E7898383E78A83FB82609193
:100CB000630470916404C8010E94520510926C0490
:100CC0007ACF84E40E9402052A988F2D880F8054E1
:100CD0000E94F104F80181918F010E94F1042A9A87
:100CE000F394F8E0FF12EDCF28960FB6F894DEBF2C
:100CF0000FBECDBFDF91CF911F910F91FF90DF907D
:100D0000CF9008950E9449010E94A90087E880932E
:100D10007A000E9407050E940D050E9465020E944C
:100D2000D20141E050E068EE73E089EC94E00E946B
:100D3000530040E45CE968EE73E08BEF92E00E94C0
:100D4000530040E65AEE68EE73E086EA92E00E94B5
:100D5000530044E650E068EE73E08BE395E00E94B8
:100D6000530040E157E268EE73E080E393E00E94B5
:100D7000530048EB5BE068EE73E08FEA95E00E9479
:100D8000530078940E948900FDCF991B79E004C03C
:100D9000991F961708F0961B881F7A95C9F78095BA
:100DA0000895AA1BBB1B51E107C0AA1FBB1FA617B2
:100DB000B70710F0A61BB70B881F991F5A95A9F704
:100DC00080959095BC01CD010895A1E21A2EAA1B31
:100DD000BB1BFD010DC0AA1FBB1FEE1FFF1FA217EB
:100DE000B307E407F50720F0A21BB30BE40BF50BE8
:100DF000661F771F881F991F1A9469F76095709571
:100E0000809590959B01AC01BD01CF010895A29FF3
:100E1000B001B39FC001A39F700D811D1124911DCE
:100E2000B29F700D811D1124911D08950F931F9382
:100E3000CF93DF938230910510F482E090E0E0914F
:100E4000E704F091E80420E030E0A0E0B0E0309763
:100E500019F1408151810281138148175907C8F067
:100E60008417950769F4109731F012960C93129736
:100E700013961C9327C00093E7041093E80422C044
:100E80002115310519F04217530718F49A01BD01D5
:100E9000EF01DF01F801DBCF21153105F9F0281B47
:100EA000390B2430310580F48A819B8161157105ED
:100EB00021F0FB019383828304C09093E804809324
:100EC000E704FE01329644C0FE01E20FF31F819356
:100ED000919322503109398328833AC02091E50447
:100EE0003091E604232B41F4209104013091050157
:100EF0003093E6042093E504209102013091030130
:100F00002115310541F42DB73EB7409106015091AE
:100F10000701241B350BE091E504F091E604E2178C
:100F2000F307A0F42E1B3F0B2817390778F0AC010C
:100F30004E5F5F4F2417350748F04E0F5F1F5093E9
:100F4000E6044093E5048193919302C0E0E0F0E071
:100F5000CF01DF91CF911F910F910895CF93DF9330
:100F6000009709F481C0FC01329713821282A0918C
:100F7000E704B091E804109781F420813181820F59
:100F8000931F2091E5043091E6042817390751F5A5
:100F9000F093E604E093E50467C0ED0120E030E063
:100FA000CE17DF0740F44A815B819E014115510550
:100FB000F1F0EA01F5CFD383C28340815181840FE0
:100FC000951FC817D90759F488819981840F951FF7
:100FD0000296918380838A819B81938382832115EA
:100FE000310529F4F093E804E093E7043DC0E901FA
:100FF000FB83EA8349915991C40FD51FEC17FD0774
:1010000061F480819181840F951F0296E901998393
:101010008883828193819B838A83E0E0F0E012964B
:101020008D919C911397009719F0FD01DC01F7CF8A
:101030008D919C9111979D012E5F3F4F820F931FC1
:101040002091E5043091E6042817390769F43097B8
:1010500029F41092E8041092E70402C0138212826D
:10106000B093E604A093E504DF91CF910895FC01CD
:1010700088279927E89421912032E9F3293010F04C
:101080002E30C8F32B3241F02D3239F4689404C06D
:101090000E947308820F911D219120532A30C0F3C2
:1010A0001EF4909581959F4F0895FB01DC018D9171
:1010B000019080190110D9F3990B0895FB01DC010F
:1010C00001900D920020E1F70895FB01DC014150F1
:1010D000504030F08D910190801919F40020B9F73B
:1010E000881B990B08957AE0979F902D879F802DFC
:1010F000910D11240895AEE0B0E0E1E8F8E00C9421
:10110000950B0D891E898F89988D26E02C831A8373
:10111000098397FF02C080E090E801979E838D834A
:10112000AE01455E5F4F698D7A8DCE0101960E94BA
:10113000CD084D815E8157FD0AC02F813885421749
:1011400053070CF49A01F801E20FF31F10822E9658
:10115000E4E00C94B10BAEE0B0E0E1EBF8E00C940D
:10116000950B0D891E8986E08C831A8309838FEF86
:101170009FE79E838D83AE01475E5F4F6F89788DB9
:10118000CE0101960E94CD08EF81F885E00FF11F96
:1011900010822E96E4E00C94B10BABE0B0E0E3EDEE
:1011A000F8E00C94870B6C017B018A01FC0117822B
:1011B0001682838181FFCCC1CE0101963C01F601EC
:1011C0009381F70193FD859193FF81917F0188239E
:1011D00009F4BAC1853239F493FD859193FF819169
:1011E0007F01853229F4B60190E00E94C40AE7CF5E
:1011F000912C212C312CFFE1F315D8F08B3279F0B2
:1012000038F4803279F08332A1F4232D20611DC09F
:101210008D3261F0803369F4232D216016C0832D57
:101220008260382EE32DE4603E2E2AC0F32DF86054
:101230001DC037FC2DC020ED280F2A3040F08E3223
:10124000B9F436FC81C1232D2064322E19C036FE3C
:1012500006C08AE0989E200D1124922E11C0EAE06B
:101260002E9E200D1124222EF32DF0623F2E08C059
:101270008C3621F4832D8068382E02C0883641F4E4
:10128000F70193FD859193FF81917F018111B3CF88
:10129000982F9F7D9554933028F40C5F1F4F9FE348
:1012A00099830DC0833631F0833771F0833509F0AF
:1012B00059C021C0F801808189830E5F1F4F8824A7
:1012C0008394912C530113C02801F2E04F0E511C5E
:1012D000F801A080B18036FE03C0692D70E002C025
:1012E0006FEF7FEFC5010E94B90A4C018201F32D17
:1012F000FF773F2E16C0280122E0420E511CF80154
:10130000A080B18036FE03C0692D70E002C06FEF8F
:101310007FEFC5010E94AE0A4C01F32DF0683F2E0D
:10132000820133FC1BC0822D90E088169906B0F430
:10133000B60180E290E00E94C40A2A94F4CFF5013D
:1013400037FC859137FE81915F01B60190E00E94E4
:10135000C40A21102A9421E0821A91088114910470
:1013600071F7E8C0843611F0893641F5F80137FE8F
:1013700007C060817181828193810C5F1F4F08C01B
:1013800060817181072E000C880B990B0E5F1F4F37
:10139000F32DFF763F2E97FF09C0909580957095AD
:1013A00061957F4F8F4F9F4FF0683F2E2AE030E0CE
:1013B000A3010E94000B882E861845C0853731F4A2
:1013C000232D2F7EB22E2AE030E025C0932D997F69
:1013D000B92E8F36C1F018F4883579F0B5C0803752
:1013E00019F0883721F0B0C0E92FE061BE2EB4FEBD
:1013F0000DC0FB2DF460BF2E09C034FE0AC0292F9A
:101400002660B22E06C028E030E005C020E130E0C2
:1014100002C020E132E0F801B7FE07C060817181AF
:10142000828193810C5F1F4F06C06081718180E0D3
:1014300090E00E5F1F4FA3010E94000B882E8618BC
:10144000FB2DFF773F2E36FE0DC0232D2E7FA22EC3
:10145000891458F434FE0BC032FC09C0832D8E7EF3
:10146000A82E05C0B82CA32C03C0B82C01C0B92CE1
:10147000A4FE0FC0FE01E80DF11D8081803321F430
:101480009A2D997EA92E09C0A2FE06C0B394B394EA
:1014900004C08A2D867809F0B394A3FC11C0A0FE85
:1014A00006C0B21488F4280C922C9B180EC0B214FB
:1014B00060F4B60180E290E00E94C40AB394F7CFD2
:1014C000B21418F42B1802C0982C212CA4FE10C0C2
:1014D000B60180E390E00E94C40AA2FE17C0A1FCFE
:1014E00003C088E790E002C088E590E0B6010CC038
:1014F0008A2D867859F0A1FE02C08BE201C080E2FD
:10150000A7FC8DE2B60190E00E94C40A891438F469
:10151000B60180E390E00E94C40A9A94F7CF8A94BF
:10152000F301E80DF11D8081B60190E00E94C40A2C
:101530008110F5CF222009F442CEB60180E290E07E
:101540000E94C40A2A94F6CFF6018681978102C0D0
:101550008FEF9FEF2B96E2E10C94A30BFC0105901B
:10156000615070400110D8F7809590958E0F9F1FA5
:101570000895FC016150704001900110D8F78095EA
:1015800090958E0F9F1F08950F931F93CF93DF9316
:10159000FB01238121FD03C08FEF9FEF2CC022FFB1
:1015A00016C046815781248135814217530744F480
:1015B000A081B1819D012F5F3F4F318320838C93A8
:1015C000268137812F5F3F4F3783268314C08B01DD
:1015D000EC01FB010084F185E02D0995892BE1F6F2
:1015E000D80116968D919C911797019617969C930A
:1015F0008E931697CE01DF91CF911F910F91089591
:10160000FA01AA27283051F1203181F1E8946F9333
:101610006E7F6E5F7F4F8F4F9F4FAF4FB1E03ED0D9
:10162000B4E03CD0670F781F891F9A1FA11D680F77
:10163000791F8A1F911DA11D6A0F711D811D911DAA
:10164000A11D20D009F468943F912AE0269F11241F
:101650003019305D3193DEF6CF010895462F477083
:10166000405D4193B3E00FD0C9F7F6CF462F4F70DE
:10167000405D4A3318F0495D31FD4052419302D03C
:10168000A9F7EACFB4E0A6959795879577956795E2
:10169000BA95C9F700976105710508959B01AC01E2
:1016A0000A2E06945795479537952795BA95C9F709
:1016B000620F731F841F951FA01D0895A8E1B0E05D
:1016C00042E050E00C946B0B0E94790B272F0C9496
:1016D0007A0BDC01CB01FC01F999FECF06C0F2BD0B
:1016E000E1BDF89A319600B40D9241505040B8F7E0
:1016F0000895262FF999FECF1FBA92BD81BD20BD56
:101700000FB6F894FA9AF99A0FBE019608952F929F
:101710003F924F925F926F927F928F929F92AF9281
:10172000BF92CF92DF92EF92FF920F931F93CF93CE
:10173000DF93CDB7DEB7CA1BDB0B0FB6F894DEBF65
:101740000FBECDBF09942A88398848885F846E848B
:101750007D848C849B84AA84B984C884DF80EE80D5
:10176000FD800C811B81AA81B981CE0FD11D0FB6DE
:10177000F894DEBF0FBECDBFED010895F894FFCF02
:1017800064320000E90420003F065B4F666D7D0770
:101790007F6F000201004D6F692065656D0D0A4283
:1017A0006F6F74206E756D6D65723A20002573251C
:1017B0007500236C696368743D002374656D703D2A
:1017C00000257325640021636F6E6E65637469651F
:1017D0002D636865636B0040636F6E6E656374694B
:1017E000652D636865636B3D737563636573002185
:1017F0006175746F6E6F6F6D00406175746F6E6FA1
:101800006F6D3D3000406175746F6E6F6F6D3D316F
:101810000021626F76656E6772656E7374656D70B8
:10182000657261747575720040626F76656E67727D
:10183000656E7374656D70657261747575723D2542
:101840006400216F6E6465726772656E7374656D96
:10185000706572617475757200406F6E6465726751
:1018600072656E7374656D70657261747575723DC5
:101870002564002173636865726D756974726F6C9D
:10188000004073636865726D756974726F6C3D2595
:101890006400216F6E6465726772656E737569743A
:1018A000726F6C00406F6E6465726772656E7375FF
:1018B0006974726F6C3D25640021626F76656E6796
:1018C00072656E73756974726F6C0040626F7665D5
:1018D0006E6772656E73756974726F6C3D25640016
:1018E000216F6E6465726772656E736C696368748C
:1018F000696E74656E73697465697400406F6E64B7
:1019000065726772656E736C69636874696E74651D
:101910006E7369746569743D25640021626F766534
:101920006E6772656E736C69636874696E74656EF8
:101930007369746569740040626F76656E6772657D
:101940006E736C69636874696E74656E73697465CF
:1019500069743D2564002161667374616E640023BF
:1019600061667374616E643D00216C696368740024
:10197000406C696368743D002174656D70657261C7
:1019800074757572004074656D70657261747575FB
:10199000723D00216175746F6E6F6F6D3D30004058
:1019A0006175746F6E6F6F6D3D7375636365730002
:1019B000216175746F6E6F6F6D3D310021626F76BE
:1019C000656E6772656E7374656D7065726174754E
:1019D00075723D0040626F76656E6772656E7374F6
:1019E000656D70657261747575723D73756363655D
:1019F0007300216F6E6465726772656E7374656DD6
:101A000070657261747575723D00406F6E646572C9
:101A10006772656E7374656D7065726174757572E9
:101A20003D7375636365730021626F76656E6772DF
:101A3000656E736C69636874696E74656E736974DE
:101A40006569743D0040626F76656E6772656E739E
:101A50006C69636874696E74656E736974656974C2
:101A60003D73756363657300216F6E6465726772A1
:101A7000656E736C69636874696E74656E7369749E
:101A80006569743D0040626F76656E6772656E735E
:101A90006C696368746974656E7369746569743DB3
:101AA000737563636573002173636865726D75692F
:101AB00074726F6C3D004073636865726D75697414
:101AC000726F6C3D73756363657300406F6E67651D
:0C1AD0006C6469670040666F757400006C
:00000001FF
