:100000000C9434000C9451000C9451000C94510049
:100010000C9451000C9451000C9451000C9451001C
:100020000C9451000C9451000C9451000C94C1009C
:100030000C9451000C9451000C9451000C945100FC
:100040000C9451000C9451000C9451000C945100EC
:100050000C9451000C9451000C9451000C945100DC
:100060000C9451000C94510011241FBECFEFD8E026
:10007000DEBFCDBF13E0A0E0B1E0E2E1FFE002C0EF
:1000800005900D92AE33B107D9F723E0AEE3B3E0AC
:1000900001C01D92AD39B207E1F70E94BE030C9476
:1000A00087070C9400000F931F93CF93DF93DC011D
:1000B000E8E4F3E020E030E0822FE90100811181E3
:1000C0002F5F3F4F3796012BB9F797E09C9FF001C8
:1000D0009D9FF00D1124E85BFC4FB183A0837383D7
:1000E0006283558344831682DF91CF911F910F91D4
:1000F000089527E0829FC0011124FC01E85BFC4FBA
:10010000118210821382128215821482168280E07C
:1001100008951F93CF93DF93C8E4D3E010E08E815E
:10012000882379F0E881F981309759F009958E811B
:1001300081508E838C819D81892B19F4812F0E949F
:1001400079001F5F2796153051F7DF91CF911F91EE
:100150000895CF93C0E08C2F0E947900CF5FC53007
:10016000D1F78FE79EE3909389008093880089E020
:100170008093810082E080936F00CF9108957894FE
:1001800008951F920F920FB60F9211248F939F9391
:10019000EF93FF93E8E4F3E080819181892B71F084
:1001A00082819381009739F486818F5F8683848171
:1001B0009581009719F0019793838283379683E0A6
:1001C000EB36F80749F7FF91EF919F918F910F90D0
:1001D0000FBE0F901F9018951092C50087E6809370
:1001E000C4001092C00088E18093C10086E0809333
:1001F000C200089530910001ABE6B3E080E090E0EA
:10020000831780F42091C00027FFFCCFFC012091D0
:10021000C6002D9301962D3099F7E559FC4F1082B9
:1002200080E0089581E0089560E0262F30E0FC0131
:1002300001900020E9F7AF01481B590B241735073F
:10024000C8F44091C00045FFFCCFFC01E20FF31F52
:10025000208121110BC08DE08093C6008091C000E9
:1002600085FFFCCF8AE08093C60008952093C600E6
:100270006F5FDBCF08958091C00080780895EF9282
:10028000FF920F931F93CF93DF93CDB7DEB7E29723
:100290000FB6F894DEBF0FBECDBF80E090E00E94A5
:1002A000270789369A4749F069E67AE780E090E0C7
:1002B0000E942D0700E010E007C082E090E00E945D
:1002C00027078C010F5F1F4F1F930F9384E091E06E
:1002D0009F938F938EE291E09F938F931F9282E37F
:1002E0008F93CE0101967C019F938F930E944404CB
:1002F000C7010E941401B80182E090E00E942D071E
:100300000FB6F894DEBF0FBECDBFE2960FB6F894DD
:10031000DEBF0FBECDBFDF91CF911F910F91FF9038
:10032000EF90089583E391E00C941401CF93DF9351
:1003300000D000D0CDB7DEB790910001EBE6F3E03E
:1003400080E0891711F121912D33E9F4DE01119636
:1003500090E0AD01282F30E025593C4FF901208174
:10036000222361F0933051F08F5F282F30E0255920
:100370003C4FF90120812D939F5FECCFFA01E90FEB
:10038000F11D108202C08F5FDCCFCE0101960E946A
:1003900007040F900F900F900F90DF91CF91089569
:1003A0000F931F93CF93DF93CDB7DEB7E2970FB6CE
:1003B000F894DEBF0FBECDBF6DE471E08BE693E035
:1003C0000E942504892B19F48EE591E0DDC06BE6CF
:1003D00071E08BE693E00E942504892B51F4809113
:1003E0004603811103C085E791E0CEC08AE791E022
:1003F000CBC06EE771E08BE693E00E942504892B69
:1004000059F480914403282F082E000C330B3F939E
:100410008F9385E991E05DC06FEA71E08BE693E030
:100420000E942504892B59F480914503282F082E1A
:10043000000C330B3F938F9386EC91E04AC060EE43
:1004400071E08BE693E00E942504892B39F48091BA
:100450003F031F928F938EEE91E03BC06FEF71E0F0
:100460008BE693E00E942504892B39F480914103A7
:100470001F928F9381E192E02CC066E272E08BE6DE
:1004800093E00E942504892B39F4809140031F9248
:100490008F9388E392E01DC06DE472E08BE693E0F9
:1004A0000E942504892B39F4809142031F928F9377
:1004B00089E692E00EC068E872E08BE693E00E9465
:1004C0002504892BC9F4809143031F928F9384EAFA
:1004D00092E09F938F938E010F5F1F4F1F930F9397
:1004E0000E947404C8010E9414010F900F900F9095
:1004F0000F900F900F904AC063EC72E08BE693E090
:100500000E942504892B19F41092460338C067ED28
:1005100072E08BE693E00E942504892B21F481E0B0
:10052000809346032CC047E150E063EE72E08BE617
:1005300093E00E942E04892B29F40E949601809357
:1005400044031DC047E150E06BEF72E08BE693E09F
:100550000E942E04892B29F40E9496018093450362
:100560000EC04EE050E063E173E08BE693E00E9442
:100570002E04892B39F40E94960180933E038FEC60
:1005800092E002C082E293E00E941401E2960FB66C
:10059000F894DEBF0FBECDBFDF91CF911F910F91B9
:1005A00008958091C00087FF0AC00E94FA0081115F
:1005B00002C00C94D0018CE293E00C9414010895D5
:1005C00080E680937C0080917A00806480937A003A
:1005D00080917A0086FDFCCF8091790024E0829F93
:1005E000C0011124845F91406AE070E00E94F3032F
:1005F000CB0108950F931F93CF93DF93CDB7DEB751
:10060000E2970FB6F894DEBF0FBECDBF0E94E002A6
:100610009F938F9382E393E09F938F9389E393E07B
:100620009F938F931F9282E38F938E010F5F1F4FD3
:100630001F930F930E944404C8010E9414010FB637
:10064000F894DEBF0FBECDBFE2960FB6F894DEBFC2
:100650000FBECDBFDF91CF911F910F91089581E61D
:1006600080937C0080917A00806480937A008091EE
:100670007A0086FDFCCF80917900089545B121E094
:1006800030E061110AC0B90102C0660F771F8A9578
:10069000E2F7CB018095842308C0B90102C0660F40
:1006A000771F8A95E2F7CB01842B85B90895CF9304
:1006B000DF93D82FC8E029986D2F617080E00E94E9
:1006C0003E03D695299AC150B1F7DF91CF91089595
:1006D0002A980E9457032A9A08958FEF84B989E8CF
:1006E0000C946803CF9380E40E9468032A9880ECFE
:1006F0000E945703C0E180E00E945703C150D9F720
:100700002A9ACF910895CF93DF93D82FC0E084E445
:100710000E9468032A988C2F880F8F530E945703DA
:1007200081E00E9457032A9ACF5FCD1780F384E4BB
:100730000E9468032A988C2F880F8F530E945703BA
:1007400080E00E9457032A9ACF5FC83080F3DF9180
:10075000CF91089590913E0380913F03891710F443
:10076000845F03C0981718F48C5080933F038091E6
:100770003F036CE00E94E7030C9483030E94EC00AB
:100780000E94A90087E880937A000E946D030E946E
:1007900072030E943F0141E050E068EE73E081ED9A
:1007A00092E00E94530040ED57E068EE73E08AEF5C
:1007B00092E00E94530040ED57E068EE73E08AEA51
:1007C00093E00E94530078940E948900FDCF991B0A
:1007D00079E004C0991F961708F0961B881F7A9538
:1007E000C9F780950895AA1BBB1B51E107C0AA1F3A
:1007F000BB1FA617B70710F0A61BB70B881F991FC2
:100800005A95A9F780959095BC01CD010895FC01FA
:1008100088279927E89421912032E9F3293010F0B4
:100820002E30C8F32B3241F02D3239F4689404C0D5
:100830000E943C04820F911D219120532A30C0F365
:100840001EF4909581959F4F0895FB01DC018D91D9
:10085000019080190110D9F3990B0895FB01DC0177
:100860004150504030F08D910190801919F40020D2
:10087000B9F7881B990B08957AE0979F902D879F71
:10088000802D910D11240895AEE0B0E0EAE4F4E08B
:100890000C945E070D891E898F89988D26E02C8324
:1008A0001A83098397FF02C080E090E801979E8336
:1008B0008D83AE01455E5F4F698D7A8DCE010196C5
:1008C0000E9496044D815E8157FD0AC02F813885B4
:1008D000421753070CF49A01F801E20FF31F10823C
:1008E0002E96E4E00C947A07AEE0B0E0EAE7F4E09C
:1008F0000C945E070D891E8986E08C831A83098318
:100900008FEF9FE79E838D83AE01475E5F4F6F89B8
:10091000788DCE0101960E949604EF81F885E00F54
:10092000F11F10822E96E4E00C947A07ABE0B0E061
:10093000ECE9F4E00C9450076C017B018A01FC01A6
:1009400017821682838181FFCCC1CE0101963C01C2
:10095000F6019381F70193FD859193FF81917F01CA
:10096000882309F4BAC1853239F493FD859193FF48
:1009700081917F01853229F4B60190E00E948D06B5
:10098000E7CF912C212C312CFFE1F315D8F08B32DD
:1009900079F038F4803279F08332A1F4232D20618C
:1009A0001DC08D3261F0803369F4232D216016C0A3
:1009B000832D8260382EE32DE4603E2E2AC0F32D75
:1009C000F8601DC037FC2DC020ED280F2A3040F004
:1009D0008E32B9F436FC81C1232D2064322E19C029
:1009E00036FE06C08AE0989E200D1124922E11C07A
:1009F000EAE02E9E200D1124222EF32DF0623F2ED0
:100A000008C08C3621F4832D8068382E02C08836C9
:100A100041F4F70193FD859193FF81917F0181114D
:100A2000B3CF982F9F7D9554933028F40C5F1F4FC0
:100A30009FE399830DC0833631F0833771F083359E
:100A400009F059C021C0F801808189830E5F1F4FD2
:100A500088248394912C530113C02801F2E04F0E97
:100A6000511CF801A080B18036FE03C0692D70E0F2
:100A700002C06FEF7FEFC5010E9482064C01820128
:100A8000F32DFF773F2E16C0280122E0420E511CA5
:100A9000F801A080B18036FE03C0692D70E002C06D
:100AA0006FEF7FEFC5010E9477064C01F32DF068D0
:100AB0003F2E820133FC1BC0822D90E088169906E0
:100AC000B0F4B60180E290E00E948D062A94F4CF43
:100AD000F50137FC859137FE81915F01B60190E009
:100AE0000E948D0621102A9421E0821A9108811417
:100AF000910471F7E8C0843611F0893641F5F801A8
:100B000037FE07C060817181828193810C5F1F4F26
:100B100008C060817181072E000C880B990B0E5F55
:100B20001F4FF32DFF763F2E97FF09C090958095BC
:100B3000709561957F4F8F4F9F4FF0683F2E2AE051
:100B400030E0A3010E94C906882E861845C085376B
:100B500031F4232D2F7EB22E2AE030E025C0932DD4
:100B6000997FB92E8F36C1F018F4883579F0B5C069
:100B7000803719F0883721F0B0C0E92FE061BE2E30
:100B8000B4FE0DC0FB2DF460BF2E09C034FE0AC0B8
:100B9000292F2660B22E06C028E030E005C020E1F3
:100BA00030E002C020E132E0F801B7FE07C060810A
:100BB0007181828193810C5F1F4F06C060817181BA
:100BC00080E090E00E5F1F4FA3010E94C906882EAF
:100BD0008618FB2DFF773F2E36FE0DC0232D2E7F6E
:100BE000A22E891458F434FE0BC032FC09C0832DA8
:100BF0008E7EA82E05C0B82CA32C03C0B82C01C033
:100C0000B92CA4FE0FC0FE01E80DF11D80818033D8
:100C100021F49A2D997EA92E09C0A2FE06C0B39494
:100C2000B39404C08A2D867809F0B394A3FC11C054
:100C3000A0FE06C0B21488F4280C922C9B180EC09B
:100C4000B21460F4B60180E290E00E948D06B39485
:100C5000F7CFB21418F42B1802C0982C212CA4FE44
:100C600010C0B60180E390E00E948D06A2FE17C07E
:100C7000A1FC03C088E790E002C088E590E0B601DF
:100C80000CC08A2D867859F0A1FE02C08BE201C00B
:100C900080E2A7FC8DE2B60190E00E948D068914E7
:100CA00038F4B60180E390E00E948D069A94F7CF65
:100CB0008A94F301E80DF11D8081B60190E00E9455
:100CC0008D068110F5CF222009F442CEB60180E2D4
:100CD00090E00E948D062A94F6CFF60186819781D6
:100CE00002C08FEF9FEF2B96E2E10C946C07FC01A2
:100CF0000590615070400110D8F7809590958E0F47
:100D00009F1F0895FC016150704001900110D8F7B9
:100D1000809590958E0F9F1F08950F931F93CF93EB
:100D2000DF93FB01238121FD03C08FEF9FEF2CC0D8
:100D300022FF16C04681578124813581421753070F
:100D400044F4A081B1819D012F5F3F4F3183208307
:100D50008C93268137812F5F3F4F3783268314C0C2
:100D60008B01EC01FB010084F185E02D0995892BB5
:100D7000E1F6D80116968D919C91179701961796DA
:100D80009C938E931697CE01DF91CF911F910F9177
:100D90000895FA01AA27283051F1203181F1E89411
:100DA0006F936E7F6E5F7F4F8F4F9F4FAF4FB1E05E
:100DB0003ED0B4E03CD0670F781F891F9A1FA11D59
:100DC000680F791F8A1F911DA11D6A0F711D811D5A
:100DD000911DA11D20D009F468943F912AE0269F1F
:100DE00011243019305D3193DEF6CF010895462F7E
:100DF0004770405D4193B3E00FD0C9F7F6CF462F5F
:100E00004F70405D4A3318F0495D31FD40524193C7
:100E100002D0A9F7EACFB4E0A69597958795779584
:100E20006795BA95C9F700976105710508959B010B
:100E3000AC010A2E06945795479537952795BA9594
:100E4000C9F7620F731F841F951FA01D0895A8E1A5
:100E5000B0E042E050E00C9434070E944207272F94
:100E60000C944307DC01CB01FC01F999FECF06C0CD
:100E7000F2BDE1BDF89A319600B40D924150504058
:100E8000B8F70895262FF999FECF1FBA92BD81BDFC
:100E900020BD0FB6F894FA9AF99A0FBE01960895FC
:100EA0002F923F924F925F926F927F928F929F927A
:100EB000AF92BF92CF92DF92EF92FF920F931F9368
:100EC000CF93DF93CDB7DEB7CA1BDB0B0FB6F89419
:100ED000DEBF0FBECDBF09942A88398848885F8459
:100EE0006E847D848C849B84AA84B984C884DF80CA
:100EF000EE80FD800C811B81AA81B981CE0FD11DAE
:100F00000FB6F894DEBF0FBECDBFED010895F89483
:020F1000FFCF11
:100F12003202010054656D70657261747575726D8F
:100F220065657473656E736F722076302E310D0AAB
:100F3200426F6F74206E756D6D65723A2000257375
:100F420025750054657374626572696368742075EF
:100F52006974207363686564756C65720021636FE0
:100F62006E6E65637469652D636865636B004074BA
:100F7200656D706572617475757200216175746F4B
:100F82006E6F6F6D00406E656500406A61002162A0
:100F92006F76656E6772656E7374656D706572618A
:100FA200747575720040626F76656E6772656E73F6
:100FB20074656D70657261747575723D256400218A
:100FC2006F6E6465726772656E7374656D7065725B
:100FD200617475757200406F6E6465726772656EDA
:100FE2007374656D70657261747575723D25640008
:100FF2002173636865726D756974726F6C004073FA
:10100200636865726D756974726F6C3D2564002149
:101012006F6E6465726772656E73756974726F6CF8
:1010220000406F6E6465726772656E737569747283
:101032006F6C3D25640021626F76656E6772656E26
:1010420073756974726F6C0040626F76656E677259
:10105200656E73756974726F6C3D256400216F6EE5
:101062006465726772656E736C69636874696E74C5
:10107200656E73697465697400406F6E646572674A
:1010820072656E736C69636874696E74656E736998
:10109200746569743D25640021626F76656E6772BE
:1010A200656E736C69636874696E74656E73697476
:1010B2006569740040626F76656E6772656E736C07
:1010C20069636874696E74656E7369746569743D89
:1010D200256400216175746F6E6F6F6D3D30004045
:1010E20073756363657300216175746F6E6F6F6DE5
:1010F2003D310021626F76656E6772656E7374654D
:101102006D70657261747575723D00216F6E6465F4
:10111200726772656E7374656D70657261747575F0
:10112200723D002173636865726D756974726F6CCC
:101132003D00406F6E67656C6469670040666F755D
:0E11420074002374656D703D002573256400F4
:00000001FF
